:020000040800F2
:1000000000040020B1010008B30100080D20000821
:10001000B3010008B3010008B3010008B3010008F0
:10002000B3010008B3010008B301000879350008E6
:10003000B3010008B3010008B3010008B3010008D0
:10004000B3010008B3010008B3010008B3010008C0
:10005000B3010008B301000805210008452100088C
:1000600085210008C521000805220008A9370008DD
:10007000BD370008D1370008E5370008F937000818
:100080000D38000821380008B3010008B30100084A
:10009000B3010008B3010008B301000845220008BD
:1000A000B3010008B3010008B3010008B301000860
:1000B00075300008B3010008B3010008B30100085F
:1000C000B3010008B3010008B3010008FD230008D4
:1000D0002D240008B3010008B3010008B301000893
:1000E00085220008B3010008B3010008B30100082D
:1000F000B3010008B3010008B3010008B301000810
:10010000B3010008B3010008B30100085D24000832
:10011000B3010008B3010008B3010008B3010008EF
:1001200035380008493800085D38000819360008DD
:10013000B3010008B3010008B3010008B3010008CF
:10014000B3010008B3010008B3010008B3010008BF
:10015000B3010008B3010008B3010008B3010008AF
:0C01600095010008692F000871010008DB
:1001700010B5054C237833B9044B13B10448AFF3E1
:1001800000800123237010BD6808002000000000DB
:10019000A843000808B5034B1BB103490348AFF35C
:1001A000008008BD000000006C080020A843000883
:1001B00016E000F000F8FEE72DE9F04FC1F80CD092
:1001C000C3689D46BDE8F08F002383F3118828465D
:1001D000A047002003F026F903F044F800DFFEE713
:1001E00072B6274880F30888264880F30988264895
:1001F0004EF60851CEF200010860022080F3148808
:10020000BFF36F8F03F0E8F903F0E7F94FF05530D3
:100210001E491B4A91423CBF41F8040BFAE71C49B6
:10022000184A91423CBF41F8040BFAE719491A4AAF
:100230001A4B9A423EBF51F8040B42F8040BF8E700
:1002400000201749174A91423CBF41F8040BFAE7D6
:1002500003F0C6F903F0C2F9134C144DAC4203DAB3
:1002600054F8041B8847F9E702F0A2FD104C114D29
:10027000AC4203DA54F8041B8847F9E703F0AFB93E
:1002800000040020000800200000000800000020FA
:1002900000040020A8430008000800206408002093
:1002A00068080020BCAD002060010008680100085B
:1002B000680100086C01000853B94AB9002908BF59
:1002C00000281CBF4FF0FF314FF0FF3000F07AB92B
:1002D000ADF1080C6DE904CE00F006F8DDF804E09D
:1002E000DDE9022304B070472DE9F0478C460E4645
:1002F0000446089D002B50D18A4217466CD9B2FAA9
:1003000082FEBEF1000F0BD0CEF1200C01FA0EF6EA
:1003100020FA0CFC02FA0EF74CEA060C00FA0EF476
:100320003A0CBCFBF2F9BBB202FB19CC09FB03FA95
:100330004FEA144848EA0C46B2450AD9F61909F1C1
:10034000FF3180F02581B24540F22281A9F10209F6
:100350003E44A6EB0A06B6FBF2F002FB106600FB79
:1003600003F3A4B244EA0644A34209D9E41900F114
:10037000FF3280F00B81A34240F2088102383C44F6
:100380000021E41A40EA0940002D62D0002324FA3B
:100390000EF42C606B60BDE8F0878B4207D9002D0E
:1003A00055D0002185E841000846BDE8F087B3FA42
:1003B00083F1002940F08F80B34202D3824200F2E1
:1003C000FC80841A66EB03060120B446002D40D061
:1003D00085E81010BDE8F08712B90127B7FBF2F7E6
:1003E000B7FA87FEBEF1000F35D10121F61B4FEAA7
:1003F000174C1FFA87F8B6FBFCF20CFB126608FBE1
:1004000002F0230C43EA0646B04207D9F61902F17E
:10041000FF3302D2B04200F2D2801A46361AB6FB3F
:10042000FCF00CFB106608FB00F8A3B243EA06449C
:10043000A04507D9E41900F1FF3302D2A04500F22C
:10044000B9801846A4EB080440EA02409CE729461C
:100450002846BDE8F08707FA0EF7CEF1200326FA0A
:1004600003F24FEA174CB2FBFCF11FFA87F80CFBC2
:10047000112206FA0EF620FA03F301FB08F93343C2
:100480001E0C46EA0246B14500FA0EF409D9F619E7
:1004900001F1FF3280F08C80B14540F28980023951
:1004A0003E44A6EB0906B6FBFCF00CFB106200FB19
:1004B00008F99EB246EA0246B14507D9F61900F19D
:1004C000FF3371D2B1456FD902383E44A6EB09061D
:1004D00040EA01418FE7C1F1200722FA07F88B407B
:1004E00048EA030326FA07F44FEA134EB4FBFEF979
:1004F0001FFA83FC0EFB19448E4020FA07F809FB13
:100500000CFA48EA06084FEA184646EA0444A245AF
:1005100002FA01F200FA01F608D9E41809F1FF30F5
:1005200044D2A24542D9A9F102091C44A4EB0A0411
:10053000B4FBFEF00EFB104400FB0CFC1FFA88F825
:1005400048EA0444A44507D9E41800F1FF3E29D243
:10055000A44527D902381C4440EA0940A0FB02897F
:10056000A4EB0C0CCC45C246CE4615D312D055B1E7
:10057000B6EB0A036CEB0E0606FA07F7CB401F43F7
:10058000CE402F606E600021BDE8F0871046F7E690
:100590008946DEE64645EAD2B8EB020A69EB030E6D
:1005A0000138E4E77046D7E718468FE78146BDE794
:1005B000114676E702383C4444E7084606E7023A2B
:1005C0003E442BE7704700BF7F2810B516D931B1E4
:1005D000FF2812D80A4B803833F8100010BD084AA3
:1005E00032F811408BB2844203D001318029F7D117
:1005F0000B4603F18000C0B210BD002010BD00BF4B
:10060000643A00080023064931F8132022B18242DF
:1006100003D1044A32F8130070470133F4E700BFF6
:10062000643B0008443D00080020704700207047EC
:1006300008B5084602F580314031DA02C90203F0FC
:1006400018F9002008BD0000F7B50D461C4602F55C
:1006500080324032D20202AE0D4F46F8042D14B95A
:10066000204603B0F0BD019802F0A4FA29464FF4E9
:100670000062384603F0FDF8013C4FF40062394651
:10068000304602F0ADFA05F50065E4B2E7E700BFD9
:1006900084080020032903D8DFE801F00A04070CCE
:1006A000042070474023136002E04FF4006313807E
:1006B000002070474FF48073F5E742884378007854
:1006C00043EA022340EA0320704783690239023B70
:1006D00099423DBF4389C06A01FB03000020704777
:1006E000024600F10B010020C30143EA500312F857
:1006F000010B03448A4203F0FF00F5D1704700006C
:1007000003685A1C02601A7890B2A0F16103192B99
:1007100002D8203880B270477F2882BF024B9B18D6
:1007200013F8800C704700BF243F0008F0B585B077
:1007300004AC44F80C1D05461E46114621B92B7821
:100740005BB956B1012006E02046FFF7D9FF013919
:100750000028F3D1002005B0F0BD019B04AC029548
:1007600044F8043D029B1B783F2B01D02A2B1DD15E
:1007700000231A460299481C02900C7849783F2CB5
:100780000CBF013201233F29F4D02A29F2D003996A
:10079000FFF7CCFF0028D5D1039B197801A8FFF7FC
:1007A000AFFF002ED6D00029D7D1D3E702A8FFF79C
:1007B000A7FF07462046FFF7A3FF87420146EDD17A
:1007C000002FCFD1BEE7026810B552B111460B46DB
:1007D00011F8014B1F2C0CD93A2CF8D1511C8B422B
:1007E00002D04FF0FF3010BD1278302AF9D101331A
:1007F0000360002010BD38B50D46044618B900232B
:1008000009202B6038BD0368002BF8D01A78002A25
:10081000F5D0D98882889142F1D15878FFF706FF48
:1008200010F00100EBD123682B6038BD01380A4479
:1008300011F8013B914200F8013FF9D17047CA7E9F
:100840008B7E032843EA022301BF487D0A7D42EAEA
:10085000002243EA024318467047C2F307238A7610
:10086000CB760378032B01BF120C0A75120A4A7566
:100870007047F8B5056B00F13407044601232A469A
:1008800039464078FFF7E0FEA0B9636AE269EB1AE7
:100890009342E07001D30020F8BDA678012EFAD96A
:1008A000E36939461D442A4601236078FFF7CCFEF0
:1008B000013EF3E70120F8BDC3780BB1FFF7D9BFC4
:1008C00018467047036B70B58B4206460D4612D032
:1008D000FFF7F2FF044660B92A46012306F134010E
:1008E0007078FFF7A5FE00281CBF4FF0FF350124EC
:1008F0003563204670BD0024FBE70000002310B5DF
:10090000C3704FF0FF3303630446FFF7DBFF30BBD8
:1009100094F8332294F8323243EA02234AF65522FD
:1009200093421ED194F83430E92B05D0636B104A02
:1009300003F0FF13934216D104F16A00FFF7BDFEE6
:100940000C4B20F07F4098420FD004F18600FFF757
:10095000B4FE094B984214BF0220002010BD0420B1
:1009600010BD032010BD022010BD002010BD00BF2F
:10097000EB009000464154004641543300232DE9DA
:10098000F0430B6085B00F461546FFF71CFF061EAF
:10099000C0F232819B4B53F82640002C00F02E8190
:1009A0003C60237805F0FE0573B16078FFF73EFEEA
:1009B000C10709D4002D00F0F88010F0040000D029
:1009C0000A2005B0BDE8F0830023F0B22370607008
:1009D000FFF72AFEC20700F113810DB14307EFD4E0
:1009E00000212046FFF78AFF022840F0E98000211D
:1009F00004F5FD7515F8040C10B12846FFF75DFEEF
:100A00004DF821000131042905F11005F2D100252E
:100A10005DF82560002E00F0CA8031462046FFF7C1
:100A20006DFF012800F2C48094F8402094F83F3014
:100A300043EA0223B3F5006F40F0C68094F84B30D0
:100A400094F84A5055EA032504D104F15800FFF701
:100A500034FE054694F84490E56109F1FF33012B1B
:100A600084F8029000F2B08094F84170BBB26381C8
:100A7000002B00F0A9807B1E3B4240F0A58094F83B
:100A8000463094F8458048EA032818F03F0FA4F850
:100A9000088040F0998094F8481094F8470050EA94
:100AA000012003D104F15400FFF707FE94F843300E
:100AB00094F8422052EA032200F0868005FB09F3F5
:100AC00002EB981E9E4470457ED3A0EB0E01B1FB55
:100AD000F7F1002978D04FF6F570814278D840F6CA
:100AE000F577B9428CBF022701270231324406EB69
:100AF0000E00032FA16126626262E0626AD194F85F
:100B00005F2094F85E3053EA02235DD1B8F1000F04
:100B10005AD104F16000FFF7D0FDA062890001F214
:100B2000FF71B5EBD12F4FD34FF0FF3363612361DA
:100B30008023032F23712FD194F8652094F864301B
:100B400043EA0223012B27D1711C2046FFF7BAFE8E
:100B500010BB94F8332294F83232207143EA022316
:100B60004AF65522934217D104F13400FFF7A5FD50
:100B7000254B984210D104F50670FFF79EFD234BDC
:100B8000984209D104F50770FFF797FD606104F5FD
:100B90000870FFF792FD20611D4A2770138801330A
:100BA0009BB21380E3801B4BE360002009E7032026
:100BB0000135042D7FF42CAF042805D1012000E776
:100BC0000428FBD0012801D90D20FAE600262BE7E6
:100BD00003278AE7B8F1000FF6D0022F4FEA410051
:100BE00018BF4018134418BF01F00101A3620CBFE5
:100BF000014601EB500192E70B20E2E60C20E0E613
:100C00000320DEE68410002052526141727241617D
:100C1000881000208A1000200129F8B504460E46ED
:100C200053D98369994250D20378022B29D0032BE0
:100C300039D0012B49D101EB5105416A01EBD52196
:100C4000FFF740FE10B14FF0FF30F8BD616A6F1C36
:100C5000C5F30A05254401EBD721204695F8345009
:100C6000FFF730FE0028EED1C7F30A073C4494F8A2
:100C70003400F30745EA00204CBF0009C0F30B0025
:100C8000F8BD416A01EB9621FFF71CFE0028DAD17E
:100C900040F2FE73343403EA4606A3195B78A05D84
:100CA00040EA0320F8BD416A01EB5621FFF70AFE36
:100CB0000028C8D140F2FC70343400EA8600204499
:100CC000FFF7FBFC20F07040F8BD0120F8BDB1F546
:100CD000001FF8B506460D4601D30220F8BDCA062E
:100CE000FBD1826804683161C2B92378022B01D933
:100CF000A36AA3B92389B3EB551FEED9A36AB361E5
:100D0000B3697261002BE8D003EBD5233434C5F30B
:100D10000A052C44B361F4610020F8BD13461A465D
:100D20006789FF02BD42114604D22046FFF7CDFC81
:100D3000B061E5E73068FFF76FFF431C024606D05D
:100D40000128CAD9A3699842C7D2ED1BEAE701205E
:100D5000F8BD2DE9F0410025D0F800808D7583693C
:100D600006460C46002B5AD0C36A01330BD001F162
:100D70001607D8F80C202B4632F81500002850D161
:100D8000002223449A7500232E271846F169A57D79
:100D90004E1E16F8012F0130202A26D0052A08BF42
:100DA000E522092807D104EB030E0DB98EF8167061
:100DB0008EF80970013304EB030E8EF809209DB9FB
:100DC000A2F1410CBCF1190F0CD808288CBF4FF0D0
:100DD000100C4FF0080C91F80C8018EA0C0F1CBF97
:100DE0002032D2B28EF8162001330B28D1D12DB982
:100DF000E21895750A7B002A08BF002300222344CD
:100E00005A72CB7A01F11C002372FFF756FC206066
:100E100001F11600FFF751FCE080000CA080BDE856
:100E2000F0810021FFF7D0FB28B10135812D02D0E0
:100E300007F8010B9DE70023A2E701292DE9F04700
:100E400005460F4614467AD98369994277D20378CA
:100E5000022B3FD0032B51D0012B70D101EB510855
:100E6000416A01EBD821FFF72DFD064638BB17F08C
:100E7000010705F1340908F1010AC8F30A0817BF90
:100E800019F80830E3B203F00F0223011CBF03F08E
:100E9000F003134309F808300123696AEB7001EB92
:100EA000DA212846FFF70EFD064640B9CAF30A0AC2
:100EB00047B1C4F3071409F80A400123EB70304628
:100EC000BDE8F08719F80A30C4F3032423F00F03B8
:100ED0001C43F0E7416A01EB9721FFF7F3FC06465C
:100EE0000028ECD140F2FE7305F1340203EA470713
:100EF000D455D319C4F307245C70DEE7416A01EBD3
:100F00005721FFF7DFFC06460028D8D140F2FC73DA
:100F100005F1340803EA870708EB07010846FFF7E5
:100F2000CCFB24F0704400F070400443230A08F81E
:100F300007404B70230C240E8B70CC70BDE702264B
:100F4000BDE72DE9F041804605680F4671B92E696D
:100F5000F6B1AB699E4228BF01263446AB69013425
:100F60009C4218D3012E15D8002409E02846FFF72B
:100F700053FE0128044637D9431C04D14FF0FF34F7
:100F80002046BDE8F081AB699842F9D33E46E4E7DC
:100F90000126E2E702242146D8F80000FFF73CFED4
:100FA00030B1012820D00130E8D0B442D6D1DBE7FF
:100FB0004FF0FF3221462846FFF73FFF90B957B95F
:100FC000AA696B69023A93422C610FD32B7943F0E3
:100FD00001032B71D4E7224639462846FFF72DFF3F
:100FE0000028EDD00128C9D00124C9E7013B6B617D
:100FF000ECE783692DE9F04705468846A3B1076908
:101000002037B7F5001F0FD2C7F30A090468B9F1FA
:10101000000F53D141690133836141B92389B3EB97
:10102000571F4BD80023AB610420BDE8F0876389CC
:10103000013B13EAD72341D12046FFF7EDFD0128FC
:10104000064602D80220BDE8F087421C02D10120EA
:10105000BDE8F087A36998422AD3B8F1000FE1D028
:1010600069692846FFF76DFF064600283AD0012837
:10107000E8D0431CEBD02046FFF71EFC0028E6D149
:1010800004F6340204F1340303F8010B9342FBD15C
:1010900031462046FFF719FB4FF000084FF0010AD8
:1010A00020636389984510D3236BA3EB0803236364
:1010B0006E6131462046FFF708FBA86134344C448A
:1010C0002F61EC610020BDE8F08784F803A0204682
:1010D000FFF7CFFB0028BAD1236B08F101080133D9
:1010E0002363DEE70720BDE8F087C16A2DE9F04100
:1010F0004B1C04460568066918D1E5274FF0010826
:10110000A1692846FFF7DEFB60B9E3691F7085F827
:10111000038023699E420DD901462046FFF769FFEF
:101120000028EDD0042808BF022003E0FFF7CFFD20
:101130000028E2D0BDE8F0812DE9F04F002185B014
:101140000546D0F800A0FFF7C2FD8046002840F019
:101150009E804FF0FF094FF0FF334E46EB62A969C6
:101160005046FFF7AFFB8046002840F09080EC69C6
:101170002778002F00F09180E27AE52F02F03F03FC
:10118000AB7103D0120705D50F2B05D04FF0FF33FD
:10119000EB6257E00F2B5ED195F82B30580652D4F6
:1011A000790647D52A69637B07F0BF07EA6294F89E
:1011B0000D9099456FD1E37EA67E46EA032636B2AE
:1011C000002E3FD194F80080012108F03F0808F17B
:1011D000FF334FF00D0808FB03F8DAF80CB0304B82
:1011E000F25CA3185878A35C43EA002331B3B8F14A
:1011F0007F0F27D818460393FFF704FA08F101027E
:1012000002903BF818000192FFF7FCF90299814225
:1012100018D1039B019A1946904601360D2EDED156
:1012200023785A0603D511B13BF8183053B9013F62
:10123000FEB208E0BE4205D14B46B8E74FF6FF725A
:101240009342EAD0FF2600212846FFF7D2FE8046CF
:10125000002884D01BE026B92046FFF741FA8145DB
:1012600015D095F82B30DB0790D404F10B0105F174
:10127000200214F8013B12F8010B8C42A3EB00038F
:1012800002D0002BF5D081E7002B7FF47FAF4046E2
:1012900005B0BDE8F08F9946D4E74FF00408F6E7B3
:1012A000A43F00082DE9F74F0746036800930B7829
:1012B00088462F2B01F10101F9D05C2BF7D00021DA
:1012C000B96098F800301F2B76D88023384687F80D
:1012D0002B3003B0BDE8F04FFFF7F9BC5C287AD0A3
:1012E000812C0BD00121FFF76FF938B17F2807D887
:1012F000864911F8012F1AB18242FAD10620F3E093
:1013000025F8020F26465FE032F8021D202901D0A1
:101310002E2973D1013E6FE0013181E0D14580F08B
:10132000A980B24211D1BAF10B0F06D1A6E0B242A8
:1013300003D044F0030400F2A580AD00EDB23246C4
:101340004FF00B0A4FF008098DE07F280DD90021DE
:101350000192FFF739F9019A18B16D4B184410F852
:10136000800C80B244F0020438B16A4B13F8011FBC
:10137000002900F0BC808142F8D15F2044F00304D2
:1013800007EB090181F8200009F101096BE045F044
:101390000205F5E75A0700F1A780BB79DB0664D5A3
:1013A000009B03F134013B69C3F30A031944009B1A
:1013B0001878FFF744FAB86000263B6808F1FF3957
:1013C000D3F80CB0ABF1020519F8010F741C1F28FB
:1013D0000BD92F2882D108EB0402A2EB080412F8E3
:1013E000011B2F29F9D05C29F7D02028A04434BF55
:1013F000042400240BEB4602002E85D100210BEBC8
:1014000046022BF81610002E3FF478AF202507F186
:101410002B0007F1200101F8015B8142FBD1002183
:101420003BF8110020283FF477AF2E283FF474AF2B
:1014300009B144F0030432F8020D2E2801D0013E18
:10144000F9D14FF000094FF0080A4D463BF8110062
:101450004A1CB8B1202804D02E287FF45FAFB242D6
:1014600005D044F003041146F0E705203CE0D145E7
:10147000FFF459AFBAF10B0F7FF459AF4FF00B0ADD
:1014800044F0030497F82030E52B04BF052387F8C8
:101490002030BAF1080F04BFAD00EDB205F00C0327
:1014A0000C2B03D005F00302032A01D144F00204FF
:1014B000A10709D405F00305012D08BF44F010046D
:1014C000042B08BF44F0080487F82B403846FFF788
:1014D00033FE97F82B3000283FF45CAF042803D18B
:1014E00013F0040F08BF052003B0BDE8F08FA0F192
:1014F000410119297FF64BAFA0F1610119299EBF67
:10150000203845F0010580B23AE700BFB03F00083F
:10151000243F0008B93F00082DE9F84FFF25814618
:101520002C464FF0040A4FF6FF780668424FD9F870
:10153000181019B9BAF1000F71D064E03046FFF706
:10154000C1F9824600285ED1D9F81C000378002B2F
:101550006FD0C27AE52B02F03F0289F806204AD00C
:101560002E2B48D022F02001082944D00F2A51D137
:101570005A063ED503F0BF04D9F81030457BC9F8B0
:101580002C30437BAB4236D1C27E837E43EA0223BA
:101590001BB283BB4FF00D0E4FF0010C0278F168C7
:1015A00002F03F02013A0EFB02FE13F807A000EB27
:1015B0000A0292F801B010F80A2042EA0B22BCF1AC
:1015C000000F24D0BEF17F0F15D8944621F81E20BD
:1015D0000EF1010E01330D2BE7D103785B0605D523
:1015E000BEF17F0F07D8002321F81E30013CE4B282
:1015F00002E0A342C5D0FF2400214846FFF7F9FCD2
:101600008246002893D00023C9F8183009E04245EB
:10161000E0D0F0E744B9FFF763F8A84204D14FF0F7
:10162000000A5046BDE8F88F4FF0FF33C9F82C3060
:10163000F7E74FF0040AE6E7A43F0008F8B50D46C7
:10164000012D0746114601D80220F8BD0468A369A0
:101650009D42F9D22AB14FF0FF322046FFF7EDFB51
:1016600008BB29463868FFF7D7FA064608B90020B4
:10167000F8BD0128E8D0431C14D00022294620469A
:10168000FFF7DBFB78B9A2696369911E8B4205D233
:1016900001336361237943F0010323719642354698
:1016A000DFD3E4E70120F8BD2DE9F04F90F82B409F
:1016B00089B014F0A004054640F083800668F26803
:1016C00032F81430002B54D105F120070C22394692
:1016D00005A8FFF7ABF89DF81F30DB077AD540234C
:1016E0004FF00109DFF82C8285F82B300B2205A979
:1016F0003846D6F80CA0FFF799F8B9F1050F4DD888
:101700004B46072203F00F0000F13001392988BF52
:1017100000F13701013A03A810441B094170F1D1CF
:101720007E2008A9114401F8140C9A423CD0F95CBF
:10173000202937D13B44072A8FBF202108A98918C7
:1017400011F8141C98BF013203F8011BD91B07299B
:10175000F1D92846FFF7F0FC8246A8BB09F1010940
:10176000B9F1640FC2D14FF0070A504609B0BDE885
:10177000F08F0134A4E7102002F0010E0EEB4303BA
:1017800013F4803F18BF83EA080301384FEA52027E
:10179000F2D131F8022F002AEDD1B2E7AAF102010D
:1017A0004B46F6E70133C0E71346C3E78046012105
:1017B0002846FFF71EFC824608B3BAF1040FD2D0C8
:1017C000D3E74FF0060AD0E70428CED19DF81F30AA
:1017D00085F82B309DF81F3000219B0742BF0D2359
:1017E0000C34B4FBF3F428464CBF01340124D5F883
:1017F0000090FFF76CFA82460028DED18046A96986
:101800004846FFF75FF882460028D6D1EB691B787F
:10181000E52B01D0002BC9D108F101084445C6D100
:10182000013C56D029692846A1EB4411FFF74FFA35
:101830008246002899D13846FEF752FF4FF6FF79CD
:101840008046A9693046FFF73DF8824600288CD1D2
:101850000F224FF00D0EEB69E1B2D6F80CC0DA7230
:101860004A1E0EFB02F2864683F80D8018739876A6
:10187000D876019248451FBF019A3CF81200013208
:101880000192234A1EF802A00EF1010E03F80A008D
:1018900003EB0A0B4FEA102A002808BF4846BEF1A6
:1018A0000D0F8BF801A0E5D1484503D0019A3CF813
:1018B00012200AB941F04001197001230021F37090
:1018C0002846FFF796FB824600287FF44EAF013C86
:1018D000B7D1A9693046FEF7F5FF824600287FF4AC
:1018E00044AF5146EB6903F1200203F8011B934218
:1018F000FBD10B223946E869FEF798FF95F82B30AB
:10190000EA6903F0180313730123F3702DE700BF96
:10191000A43F00082110010038B50446FEF7CCFFB3
:10192000002851D12378032B46D12379012B43D1B1
:1019300004F134010B46054604F6340203F8015B5A
:101940009A42FBD1552384F83232AA2384F83332E9
:10195000522384F8343084F83530612341227220D8
:1019600084F8363084F81B32636984F8372084F8B1
:101970001A221A0A84F81C3284F81D221A0C1B0E33
:1019800084F81F32236984F81E221A0A84F821225F
:101990001A0C84F82222226A84F8203201321B0EAB
:1019A00084F8180284F8190284F823322263012390
:1019B0006078FEF749FE2571002260781146FEF737
:1019C00069FE003018BF012038BD00001FB501902E
:1019D00004A840F8041D00911446FEF7F4FE011E11
:1019E00015DB0D4B53F8210008B10022027001985D
:1019F00008B10022027043F8210030B1012C08D157
:101A0000002201A96846FEF7B9FF04B010BD0B2003
:101A1000FBE70020F9E700BF841000202DE9F04F1C
:101A200091B0019115460446002800F0DC8002F0D8
:101A30003F06324602A901A8FEF7A0FF0746D8B923
:101A4000029B0DF1400949F8343D01994846FFF7E2
:101A500029FC20B99DF93730002BB8BF062015F0BE
:101A60001C0F00F08C8058B1042802D14846FFF7C3
:101A70001BFE46F0080660B1002307462360ACE079
:101A80009DF8123013F0110F40F08480680700F1C8
:101A9000AC8031073CD5002521214E220A9BDDF880
:101AA00008A019745A749D73DD730A9B5A7620221C
:101AB00019769D75DD750A9BDA72DDF828B09AF803
:101AC00000005946FEF7BBFE2A468046594650465E
:101AD000FEF7C3FE01220A9B1D775D779D77DD77B8
:101AE000029BDA70B8F1000F12D02A4641464846F0
:101AF000D3F830A0FFF7A2FD0028BDD151460298CF
:101B0000FEF7E0FE029A08F1FF3313610028B3D11B
:101B1000DDF808900A9DD9F830306562236299F8A3
:101B200000003107294648BF46F04006FEF787FE11
:101B3000A06005F11C00FEF7C0FDB9F8063004F105
:101B40002808A38000234246E060C4F80090267471
:101B50006374E361636104F6280102F8013B8A4281
:101B6000FBD1B20639D5E568002D36D0B9F80A6048
:101B7000A1686561F602AE420ED3002018E000288D
:101B80007FF47AAF9DF81230DA0630D4AD07BFD5B6
:101B9000D807BDD507206FE72068FFF73DF801287B
:101BA00001461ED9431C58425841AD1B0028E2D0C3
:101BB000A16100287FF460AFC5F30A036BB1029EF8
:101BC0003046FEF782FDA0B100EBD522E261012391
:101BD00041467078FEF72CFD68B9384611B0BDE873
:101BE000F08F0220E1E70927F7E7082044E7042007
:101BF00042E7022040E701203EE72DE9F04F9B46F7
:101C0000002385B08946CBF8003003A90446154669
:101C1000FEF7F1FD0646F8B9667CEEB9237CD907DC
:101C200040F18F80E368676904F1280ADF1BAF4247
:101C300028BF2F4687B16269C2F30A03002B72D115
:101C4000039B5B89013B13EAD22315D142B9A068FB
:101C500001280CD802266674304605B0BDE8F08F26
:101C6000A16920680093FEF7D7FF009BF0E7421CB4
:101C700001D10126EFE7A0610193039BA1691846FA
:101C80000093FEF722FD0028E4D0019BFD0A03EB40
:101C900000082AD0009A591952890098914288BFA9
:101CA000D51AEBB2424649464078FEF7C1FC0028FF
:101CB000DFD194F91030002B0BDAE069A0EB0800BB
:101CC000854206D94FF40062514609EBC020FEF769
:101CD000ADFDED026369A9442B446361DBF800307C
:101CE0007F1B2B44CBF80030A4E7E269904518D065
:101CF00094F91030002B0BDA0098012351464078FC
:101D0000FEF7A2FC0028B4D1237C03F07F032374E8
:101D100003980123424651464078FEF789FC00288B
:101D2000A7D1C4F81C8061694846C1F30A01C1F516
:101D30000065BD4228BF3D4651442A46FEF776FD68
:101D4000C8E7072688E773B501A90546FEF753FDE6
:101D5000064600283BD12B7C5A0638D51B060CD5ED
:101D600001980123EA6905F128014078FEF76CFC2F
:101D700080BB2B7C03F07F032B74296A0198FEF74C
:101D8000A1FD064618BB6C6AE37A214643F02003A6
:101D9000E372AA682868FEF760FDEB6801981A0AEA
:101DA000237762771A0C1B0EE377212323764E23C9
:101DB00063760123A675E675A674E674A277C370F0
:101DC000FFF7AAFD06462B7C23F040032B74304618
:101DD00002B070BD0126FAE713B50446FFF7B3FF62
:101DE00028B901A92046FEF706FD00B9206002B01F
:101DF00010BD1FB50446019150B3002203A901A8EC
:101E0000FEF7BCFD70B9039B019923602046FFF7E4
:101E100049FAF8B994F92B30002B0CDBA379DB06D7
:101E200003D405200023236010E0039BE1691878A8
:101E3000FEF705FDA060039B0021DB882046A38000
:101E4000FEF745FF0428ECD00028EBD104B010BD0C
:101E50000920FBE70428E4D0E4E773B50D4601A9A7
:101E60000446FEF7C8FC20B92DB901462046FEF70E
:101E70002EFF02B070BD2046FFF74EFB10F0FB06B0
:101E8000F7D129462046FEF764FF31462046FFF78A
:101E9000B0F8042808BF0020EBE7F8B506460D4669
:101EA00001F1160729463046FFF7D7FF044650B91F
:101EB0004DB1AB7D3BB1034602463946306BFEF770
:101EC00035FC0028EED02046F8BD38B50D4603633A
:101ED00011460446FFF78DFF28B929462046BDE884
:101EE0003840FFF7DABF38BDF0B59FB0019002224D
:101EF00003A901A8FEF742FD039B0446049370B9B1
:101F0000019904A8FFF7CEF9044640B99DF93B308A
:101F1000002B10DB9DF81670FA070ED5072420461B
:101F20001FB0F0BD0246294604A8FFF787FB044610
:101F30000028F4D122E00624F1E7039E0B993078C3
:101F4000FEF77DFCFB06054610D5214611A811962B
:101F50001395FEF7BCFE04460028E0D111A8FFF758
:101F6000DBFA04460028D9D00428D8D104A8FFF70A
:101F7000BCF804460028D2D1002DD3D10398FFF736
:101F8000CBFC0446CBE7000038B50D4604460146BD
:101F900001222846FFF742FD50B9EB688BB928466D
:101FA000FFF71AFF2146074800F05CFB0B2038BD05
:101FB000042815BF014604480448214600F052FB9E
:101FC000012038BDC13F0008D03F0008DF3F0008B6
:101FD00008B5202282F3118803681B689847002304
:101FE00083F3118808BD0000074B01385A6922F0BD
:101FF00080025A6110F8012F22B119680906FCD538
:102000005A60F7E7704700BF0038014008B5024842
:10201000FFF7EAFF01BEFEE7F33F00084FF0804301
:102020001A46596A10B50C4C89B2E368DB070AD42A
:10203000E3685B070ED4E368C3F30013002814BF02
:102040001846022010BD536A5B1A9BB29842ECD826
:102050000323F3E70123F1E700200240034B044A86
:102060005A6002F188325A60704700BF0020024077
:102070002301674508B55A20FFF7D0FF024A1369CC
:1020800043F08003136108BD0020024038B50546C7
:102090005A20FFF7C3FF90B9094C5A20236943F037
:1020A000020323616561236943F040032361FFF765
:1020B000B5FF236923F00203DB04DB0C236138BD89
:1020C0000020024070B506465A200D46FFF7A6FFD5
:1020D000A8B90B4C5A20236943F001032361ABB22A
:1020E0003380FFF79BFF20B92D0C75805A20FFF736
:1020F00095FF236923F00103DB04DB0C236170BD32
:102100000020024008B5202383F31188094B1B6887
:1021100053B198470122084B5A61002383F3118879
:10212000BDE8084001F032BA0449054800F0B2FAAF
:10213000F0E700BF8C1A0020000401403C4000087A
:10214000FF3F000808B5202383F31188094B5B6823
:1021500053B198470222084B5A61002383F3118838
:10216000BDE8084001F012BA0449054800F092FAAF
:10217000F0E700BF8C1A0020000401404540000831
:10218000FF3F000808B5202383F31188094B9B68A3
:1021900053B198470422084B5A61002383F31188F6
:1021A000BDE8084001F0F2B90449054800F072FAB0
:1021B000F0E700BF8C1A0020000401404E400008E8
:1021C000FF3F000808B5202383F31188094BDB6823
:1021D00053B198470822084B5A61002383F31188B2
:1021E000BDE8084001F0D2B90449054800F052FAB0
:1021F000F0E700BF8C1A002000040140574000089F
:10220000FF3F000808B5202383F31188094B1B69A1
:1022100053B198471022084B5A61002383F3118869
:10222000BDE8084001F0B2B90449054800F032FAAF
:10223000F0E700BF8C1A0020000401406040000855
:10224000FF3F000808B5202383F31188094B1B6862
:102250005BB198474FF47872074B5A61002383F3C0
:102260001188BDE8084001F091B90449044800F024
:1022700011FAEFE7A41A00200004014069400008A9
:10228000FF3F000808B5202383F31188094B1B6822
:102290005BB198474FF47C42074B5A61002383F3AC
:1022A0001188BDE8084001F071B90449044800F004
:1022B000F1F9EFE7A01A0020000401407240000885
:1022C000FF3F000870B504462C4B86B002AD03F109
:1022D00010062A4618685968083303C2B3421546E7
:1022E000F7D100238DF800308DF801308DF80230E1
:1022F0008DF8033001238DF8043002238DF805306A
:1023000003238DF8063004231D4A8DF807305368E7
:10231000C3F38103012B03D0022B1ED0194B00E025
:10232000194B516806A8C1F30311014411F8101CA0
:10233000CB40236051685268C1F30221C2F3C2222C
:102340000144024411F8181C12F8182C23FA01F168
:10235000D3406160A36006B070BD53685168C3F399
:102360008343C80303F1020302D408494B43D8E76F
:10237000516889034CBF06490349F7E7543A0008FE
:102380000010024000127A00001BB70000093D0057
:10239000808D5B0006480749836805C8B3FBF1F3ED
:1023A000B2FBF1F2B0FBF1F1034800F05BB900BF02
:1023B000801A002040420F000D4000080B4B0C4AD1
:1023C000994252680B4B02D00B48814205D1C2F3AF
:1023D000C222032A986806D87047C2F30222032A51
:1023E000586800D870474000704700BF002C01407B
:1023F00000100240801A00200034014008B520235C
:1024000083F31188074B9B68DB0703D5064B1B68DA
:1024100003B19847002383F31188BDE8084001F019
:10242000B5B800BF00300140A81A002008B520232D
:1024300083F31188074B9B68DB0703D5064B1B68AA
:1024400003B19847002383F31188BDE8084001F0E9
:102450009DB800BF00380040AC1A002008B520230A
:1024600083F31188074B9B68DB0703D5064B1B687A
:1024700003B19847002383F31188BDE8084001F0B9
:1024800085B800BF003C0040B01A00202DE9F043A1
:1024900005469846002485B09DF8309001AEB1FB0A
:1024A000F2F302FB1310092804F1010494BF303049
:1024B0003730C0B23719194607F8010C002BEED19E
:1024C000274647450DD22B6849461B682846984742
:1024D00018B10C2005B0BDE8F0830137F1E7002CFE
:1024E000F8D02B68013C1B68315D284698470028CE
:1024F000F5D0EEE72DE9F04F0B46054614464FF0B8
:102500000A0B85B019785E1C31B928462B685B68C8
:1025100005B0BDE8F04F1847252905D02B6828469F
:102520001B68984748B3F0E75F784FF00008302FFA
:1025300014BF20279E1C16F8011BA1F13003DBB24B
:10254000092B03D92A2904D1237804340BFB08383A
:10255000F1E72E2909D116F8011BA1F13003092B4F
:10256000F9D92A2901D10434F5E7632939D017D8DC
:1025700041294ED003D82529D0D03346C2E753296C
:1025800039D05829F9D14346102204F104090097A3
:1025900021682846FFF77AFF0028B6D14C46ECE7C1
:1025A000692902D013D86429E7D104F10409246809
:1025B000002C07DA2B682D211B6828469847002835
:1025C000A3D16442009743460A222146E1E77329DA
:1025D00011D07529D1D104F10409009743460A228C
:1025E000D6E72B6821781B682846271D98470028C6
:1025F0008BD13C46C1E72768013F17F8011F09B995
:102600000434BAE72B6828461B6898470028F4D0A2
:102610007BE700272368D4F80880D4F8049003935C
:102620005FFA88FA4F4501DB0C34A6E7002F0DDC7A
:10263000039B1022D95D3023284600930223FFF725
:1026400025FF00287FF461AF0137EBE7B8F1000FF9
:10265000EED02B6851461B68284698470028E7D0E3
:1026600053E700000FB407B504AB53F8041B019304
:10267000202383F311880648019AFFF73BFF0023CC
:1026800083F3118803B05DF804EB04B0704700BF1A
:10269000ACAB00200FB407B504AA52F8041B0448E1
:1026A0000192FFF727FF03B05DF804EB04B0704719
:1026B000ACAB002070470EB403B503AA52F8041B5C
:1026C00000F5004090300192FFF714FF02B05DF872
:1026D00004EB03B07047A0F19400A0F50040EAE7D6
:1026E000104B984205D1104A936943F0040393615B
:1026F00070470E4B984204D10B4A936943F008038C
:10270000F5E70B4B984204D1074A936943F0100355
:10271000EDE7084B9842EBD1034A936943F020035D
:10272000E5E700BF0008014000100240000C014036
:10273000001001400014014048F210028158831833
:1027400048F21C0282585B1A934228BF134648F293
:10275000200210B5835073B148F21802002484544B
:1027600042685268D1605360C3681B6A1360136883
:1027700043F00103136010BD436830B459680A6820
:1027800022F00F020A60597B1A680E238B405360B7
:1027900048F21C0248F22003C45883581B1B835084
:1027A00048F21002815885182144A94228BF00F13F
:1027B000100181503BB930BC48F218030122C254C9
:1027C00003681B68184730BCFFF7B6BFFFF7D4BFDC
:1027D00048F21C03C35810B5B3F5004F15D248F2A8
:1027E0001403C258541CC4501170C15800F5004263
:1027F0001032914224BF00F11002C25048F21C0274
:10280000835801338350002010BD0C2010BDFFF70A
:10281000DFBFA0F19000A0F50040F8E748F21803F0
:10282000C35C0BB1FFF788BF7047FFF7F7BFA0F19C
:102830009000A0F50040F8E748F22802836810B540
:102840005B6804465B688058C3F163031B1A48BF8A
:10285000633363B1431CA35048F22C032044C35C90
:1028600000200B70A358622B02DDA05010BD0B207E
:1028700010BD000048F28F03C35C73B50546002B02
:1028800039D000F5004498340DF107012846FFF7D0
:10289000D3FF80BB94F868209DF807303AB1082B2D
:1028A00084F868006066EFD00D2B0AD1ECE7082BA6
:1028B00005D1636E002BE7D0013B6366E4E70D2B87
:1028C00001D00A2B10D1636E002BDDD000260B49FE
:1028D000E654204601F04EF8012384F8683048F2AF
:1028E0008F03E066EE54CFE7626E612ACCD8511CAC
:1028F0006166A354C8E702B070BD00BF7B4000080A
:10290000C168064A4B6809689342054A0CBF926841
:102910005268B2FBF1F29A60704700BF0038014084
:10292000801A0020C36870B59D68044628469989BE
:10293000FFF7D6FE584B07299A6942F001029A61C7
:102940006BDC0F2089002A68C9B2884022EA0002A5
:102950002A600922286802FA01F101432960E2682D
:102960004E4952688A4268D19A6942F480429A611B
:102970009B692046FFF7C4FF0022E06809214368F5
:1029800080691A612346464A00F0E6FEE368416822
:102990005A686060101D8860186A0126086048F255
:1029A000180166540C21D160C0211D69516128466F
:1029B000998AFFF795FEEB688E401E430729EE606B
:1029C00059DC0F2289002B68C9B28A4023EA02032E
:1029D0002B6008232A6803FA01F1114329600023C0
:1029E000E0681A460921C06900F0B6FEE168436854
:1029F0004A68A060101D98606320496A04F500448D
:102A00002C34DC6058601960196841F001011960CC
:102A1000D36843F40053D36070BD0F200839890098
:102A20006A68C9B2884022EA00026A6009226868BE
:102A300002FA01F10143696091E71A498A4205D11E
:102A4000DA6942F40032DA61DB6992E716498A42B8
:102A500003D1DA6942F48022F5E714498A4203D1AE
:102A6000DA6942F40022EEE711498A4281D1DA693B
:102A700042F48012E7E70F22083989006B68C9B277
:102A80008A4023EA02036B6008236A6803FA01F1B3
:102A900011436960A3E700BF001002400038014005
:102AA000CD2700080044004000480040004C004092
:102AB00000500040202383F31188012248F28F0345
:102AC000C254002383F311887047FFF7F3BFA0F1CE
:102AD0009400A0F50040F8E7C3680BB100F00EBD0C
:102AE00070470123018EC26A8B40536170470123F6
:102AF00030B5C269048E1579C16AA34025B94B610E
:102B00000832C261002030BD0B61F9E70368244937
:102B100030B58B42848882791AD12248816941F08C
:102B2000040181619200072C42F0010228DC0F258C
:102B3000A1001868C9B28D4020EA05001860186825
:102B40008A4002431A60012202FA04F45C6130BD3B
:102B500015498B4204D11348816941F00801E0E72F
:102B600012498B4204D10F48816941F01001D8E726
:102B70000F498B42D6D10B48816941F02001D0E743
:102B80000F25A4F1080189005868C9B28D4020EAD8
:102B90000500586058688A4002435A60D3E700BF76
:102BA0000008014000100240000C014000100140EC
:102BB0000014014008B5FFF769FA48B10548FFF76E
:102BC00051FD4FF4617000F032FC034A034BDA60B0
:102BD00008BD00BFD44000080400FA0500ED00E085
:102BE0002DE9F84306460D46D41C24F00304124F89
:102BF000DFF84C80DFF84C900C44A54212D055F819
:102C0000041B3068FFF75EFA40B13846FFF72AFD33
:102C10004FF4617000F00BFCC8F80C90336804337B
:102C20003360EAE74FF46170FFF7F8F9BDE8F84365
:102C30000248FFF717BD00BFE1400008ED40000863
:102C400000ED00E00400FA052DE9F041041D054601
:102C500020460F464FF4FA66FFF73EFF40F2E7309A
:102C600000214FF47A720023E6FB0701FDF724FBF5
:102C70002B460146024A2046BDE8F04100F0F2BB77
:102C8000D11F000838B50369044613B10430FFF7BB
:102C900023FF4FF0FF35E3691A78042AFDD8DFE8F7
:102CA00002F0030A131A1E00236820469B68984707
:102CB0000128F0D138BD59680833E3610029EAD012
:102CC0002046FFF7C1FF38BD5A68A369012103EB15
:102CD000C203E361F4E70023A361E36138BD226A24
:102CE000013204BF5A682262226A1AB90833256287
:102CF000E361D0E7A369013AE3612262CBE7000018
:102D000008B5202383F311884FF0FF330548036291
:102D1000054B8361C361FFF7B5FF002383F311887F
:102D2000FEE700BFE82A002018410008154B10B547
:102D30001B68013301D1FFF7E3FF134CA36963B1B3
:102D4000202383F31188236913B1201DFFF7C4FEEC
:102D50000023A361E36183F311880B48FFF7C1FEF1
:102D6000202383F3118872B6064B084A93601B68D0
:102D700083F30888064B1B689847002383F3118868
:102D800010BD00BF00500008E82A002000ED00E060
:102D90000450000808B5054B1B68013301D1FFF74B
:102DA000AFFFBDE80840FFF7C1BF00BF00500008FB
:102DB000534A2DE9F3411368524C43F0100313605A
:102DC0005148FFF77FFA00F03BF900F061FA04F197
:102DD0002C00FFF79BFE0123218EE26A8B401361DA
:102DE0004A48FFF79FFD4A4A4A4953684A4843F018
:102DF00004035360494AFFF735FC4348FFF7CAFA1A
:102E0000002247494748FEF7E1FD38B14648FFF741
:102E100029FCC62000F00BFBFFF788FF434B404A1C
:102E200043494448FFF751F838B14348FFF71AFCCB
:102E3000C62000F0FCFAFFF7ADFF3D4B9B7D43B988
:102E40003A493E48FFF70EFCC62000F0F0FAFFF7C3
:102E5000A1FF3B493B48FFF705FC3B493848FFF7DA
:102E600093F808B1FFF796FF374EF568FFF7F6F8CD
:102E7000202383F311884FF0FF332362334B214823
:102E8000A361E361FFF7FEFE002383F31188304B5B
:102E9000DFF8D0802F4F01932DB1019B434510D90E
:102EA0002D48FFF7DFFB2D48FFF7DCFB2648FEF738
:102EB00093FF2348FFF718F8FFF7DCF8FFF736FF1A
:102EC000FEE7B5F5006F2A46A8BF4FF4006202ABDB
:102ED00043F8082D39463046AD1AFEF78EFE20B174
:102EE0001F48FFF7BFFBFFF755FF02AC54F8040D76
:102EF000FFF760FE009A39462046FFF771FECBE7E8
:102F000000200240E82A0020801A00201C2B00200C
:102F1000000001404E4100086041000840410008A7
:102F200068410008B422002069410008734100088C
:102F3000E8190020B41900207B4100088D410008E9
:102F4000FE1900209B4100088C110020F040000871
:102F500000500008B41A0020A6410008C94100082A
:102F6000BD410008FFE703084FF47A3170B52D4AE0
:102F70002D4E2E4B166182E84A00062393810723CB
:102F80009382032393610423D361922313624FF44A
:102F9000855348F210015362254B0024DA6003F197
:102FA00010025A5048F214015A50012248F21801F6
:102FB0005A5448F21C015C5048F220015C5048F21F
:102FC00024015C5048F228015C5048F28F015A54A9
:102FD00048F2FC029C5003F50142147048F20412BE
:102FE0009C5048F2081248F290019C50114A124D30
:102FF00002F12000585048F294011A6030325A50C1
:1030000028462C22214600F03FFC4FF0FF332B6274
:1030100002232B86094B85F82940EE6285F8324061
:103020002B6070BD28AC0020000C0140003801402E
:103030001C2B002088400008E82A0020C840000817
:1030400008B500F0F9FABDE8084000F000B800F05B
:1030500025B84FF08043002258631A610222DA60DB
:10306000704700224FF08043DA6070474FF0804392
:10307000586370474FF080431A6910B5920708D51E
:1030800000241C61202383F3118800F03FF984F3AE
:103090001188BDE8104000F079BA000008B5144B63
:1030A0004FF08041DA69134842F00102DA61124AB6
:1030B000DB69536843F400635360FFF77FF94FF413
:1030C000FA63B0FBF3F04FF6FF724FF08043013824
:1030D0009862DA6200229A615A63DA605A600122C9
:1030E00002215A611C201A60BDE8084000F006B8B1
:1030F00000100240801A0020002004E000F160432C
:10310000090103F56143C9B283F80013012300F0FC
:103110001F024009800000F16040934000F56140CB
:10312000C0F88031036070470022024B1B605B6077
:103130009A607047C4AC0020002382680374054B7A
:103140001B6899689142FBD25A6803604260106024
:1031500058607047C4AC002008B5202383F3118861
:10316000027C0023052A06D8DFE802F00B050503E0
:10317000120E426913604FF0FF334361FFF7DCFF2B
:10318000002383F3118808BD42699368013393607B
:1031900090E80C001A6002685360ECE70023826834
:1031A0000374054B1B6899689142FBD85A68036009
:1031B0004260106058607047C4AC0020054B19692C
:1031C00008741868026853601A6018610123037458
:1031D000FCF7F2BFC4AC002030B54B1C87B00546ED
:1031E0000A4C10D023690A4A01A800F03BF928468E
:1031F000FFF7E4FF049B13B101A800F07FF92369F6
:10320000586907B030BDFFF7D9FFF8E7C4AC00201C
:103210005931000838B50C4D41612B6981689A68B5
:103220000446914203D8BDE83840FFF785BF1846F1
:10323000FFF7B4FF01232C61014623742046BDE84B
:103240003840FCF7B9BF00BFC4AC0020044B1A687B
:103250001B6990689B68984294BF002001207047CA
:10326000C4AC002010B5084C236820691A6854606B
:103270002260012223611A74FFF790FF0146206942
:10328000BDE81040FCF798BFC4AC0020FEE700008A
:1032900010B5174CFFF748FF00F0D6F8802215490B
:1032A000204600F07DF8012344F8180C0374124BFB
:1032B000124AD96821F4E0610904090C0A43104953
:1032C000DA60CA6842F08072CA600E490A6842F049
:1032D00001020A601022DA77202283F822200023DC
:1032E00083F3118862B6BDE81040074800F07AB851
:1032F000ECAC0020D841000800ED00E00003FA0526
:10330000F0ED00E0001000E0E04100082DE9F84F8A
:103310004FF00008C146214C656904F114074FF0D5
:1033200080435B6A268C9BB29E1BAA68B6B296420B
:103330001CD34FF0200AAA68238CD5F80CB0134494
:1033400023842B68B61ABB425F606361C5F80C80AA
:1033500001D1FFF786FE89F311882869D8478AF3DF
:1033600011886569AB689E42E5D2D8E76269BA42C6
:1033700012D0916823848E1B96604FF6FF72A86866
:10338000904228BF104602282CBF1818981CBDE890
:10339000F84F80B2FFF76ABEBDE8F88FC4AC0020DA
:1033A0008260022202740022427470478368A3F193
:1033B0003C0243F80C2C026943F83C2C426943F868
:1033C000382C074A43F81C2CC268A3F1180043F8B4
:1033D000102C022203F8082C002203F8072C704757
:1033E000C9010008552110B5826843689A420DD87A
:1033F000202383F31188FFF7D9FF00210446FFF74C
:1034000009FF002383F31188204610BD03F8011B38
:10341000ECE70000024B1B6958610F20FFF7CEBE9E
:10342000C4AC0020202383F31188FFF7F3BF08B555
:103430000146202383F311880820FFF7CDFE0023E7
:1034400083F3118808BD0000054B03F114025A6193
:103450009A614FF0FF32DA6100221A84704700BF90
:10346000C4AC0020F8B503614FF08043C26006464B
:10347000586A214B02291A4652F8145F38BF0221BC
:10348000954280B21F4610D14FF6FF741884A142B6
:1034900094BF401800195E619E6180B2356075600E
:1034A000B160BDE8F840FFF7D4BD1B8CAA68C41A10
:1034B000A4B2641802D3A41A2D680AE0944208D278
:1034C0004FF6FF70844294BF1819181880B2FFF7A6
:1034D000CDFDAB689C420CD86B68356073601E6094
:1034E0004FF0FF336E60B460A968091BA960FB61EF
:1034F000F8BDE41AE0E700BFC4AC002010B41D4CD6
:10350000224652F8141F81420ED0416803680B60B6
:103510000368596000219342C16003D09A688168B2
:103520000A449A6010BC704700200B6893426361A4
:103530005A60C86002D110BCFFF793BD98688A68D2
:10354000104498604FF08043228C5B6A9B1A9BB2B8
:103550009842E7D9C11A012905D8981C104480B2B5
:1035600010BCFFF783BD4FF6FF73984228BF184683
:10357000F4E700BFC4AC0020EFF30983203383F3EA
:103580000988002383F311887047000010B52023B9
:1035900083F311880D4B5B6813F4006312D0EFF3D3
:1035A00009844FF0807344F8043CA4F1200383F3B2
:1035B0000988FFF74BFE18B1054B44F8083C10BDD5
:1035C000044BFAE783F3118810BD00BF00ED00E063
:1035D000D9010008DC010008704770477047FEE71A
:1035E00070B500240B4B03F1800093E826000439EA
:1035F000AA4206D3D9688A4208D310338342F4D34F
:1036000070BD51F8046F42F8046BF1E742F8044BC7
:10361000F1E700BF0042000810B5064C204600F05C
:10362000A5F804F1100000F0A1F8BDE81040FFF784
:10363000ADBF00BF204300084FF0FF3108B50E4B6F
:103640001A6919611A6900221A611869D868D96063
:10365000D968DA60DA68DA6942F08052DA61DA69E8
:10366000DA6942F00062DA61DB6900F007F8BDE870
:10367000084000F0FDB800BF001002400023012206
:103680000A4910B50A4C0B604B6004EB021050F86D
:103690000C0C036041F8323001320D2AF5D14FF0A5
:1036A000FF33044A5360C2F8043410BD50AC00200C
:1036B00080420008000002400B282DE9F04141D86B
:1036C0000125224C8540266835423BD1DFF884E055
:1036D000070101302E4344F8302015F07F0F04EB32
:1036E000C00026600EEB07084360764605D0184BF5
:1036F000586940F0010058615B6915F4786F05D096
:10370000134B586940F0020058615B6952B1F019DF
:10371000626883681A4202D1C07BFFF7EFFC6368DE
:103720001D436560F1194B68497B1A68F05922F016
:103730000F021A600E228A40426000221A60404640
:10374000BDE8F0814FF00008F9E700BF50AC002061
:10375000001002408042000810B5202484F3118834
:10376000FFF7AAFF002383F3118810BD10B404688B
:10377000437B21684268D940126801F00E01114272
:103780000ED0827B01FA03F36360064B013253F8DB
:1037900032402CB103EBC2035868234610BC1847D3
:1037A00010BC704750AC002008B50348FFF7DEFF9F
:1037B000BDE80840FFF7EABE8042000808B50348AC
:1037C000FFF7D4FFBDE80840FFF7E0BE90420008D5
:1037D00008B50348FFF7CAFFBDE80840FFF7D6BEAB
:1037E000A042000808B50348FFF7C0FFBDE8084045
:1037F000FFF7CCBEB042000808B50348FFF7B6FF9C
:10380000BDE80840FFF7C2BEC042000808B5034843
:10381000FFF7ACFFBDE80840FFF7B8BED042000894
:1038200008B50348FFF7A2FFBDE80840FFF7AEBEAA
:10383000E042000808B50348FFF798FFBDE80840DC
:10384000FFF7A4BEF042000808B50348FFF78EFF5B
:10385000BDE80840FFF79ABE0043000808B50348DA
:10386000FFF784FFBDE80840FFF790BE1043000853
:10387000704710B5431E0A44914200D110BD11F8A3
:10388000014B03F8014FF7E703460244934200D18E
:10389000704703F8011BF9E770B5CD1C25F003054F
:1038A00008350C2D38BF0C25002D064601DBA9423A
:1038B00003D90C233360002070BD00F0B7F8234A11
:1038C0001468214691B9224C23681BB9304600F098
:1038D00041F820602946304600F03CF8431C26D1D0
:1038E0000C233046336000F0A2F8E4E70B685B1B62
:1038F0001AD40B2B0FD90B60CC18CD50304600F0EA
:1039000096F804F10B00231D20F00700C31A1BD00A
:103910005A42E25070BD8C420BBF63684B68136023
:10392000636018BF0C46E9E70C464968CAE7C41C47
:1039300024F00304A04205D0211A304600F00AF812
:103940000130CDD02560D9E770BD00BFB8AC0020F4
:10395000BCAC002038B50023054C05460846236062
:1039600000F066F8431C02D1236803B12B6038BD18
:10397000B8AD0020134B2DE9F0411D680646AC6D33
:103980000F46B4B9502000F049F8A86504604460BF
:103990008460C4600461446184618462C4620463BD
:1039A00044638463C463046444648464C4640477C7
:1039B0004462AA6D39463046BDE8F041012300F06B
:1039C00003B800BF00080020F0B518B9106808B9A6
:1039D000F0BD204604460F4614F8015B17F8016B52
:1039E0001EB965B915602846F0BDB542F6D1002B69
:1039F000EFD114600370F0BD1C460CE015B90E4603
:103A000014F8013B16F8015BAB42F7D1002BF3D061
:103A1000002304F8013C1460F0BD0000024B014695
:103A20001868FFF739BF00BF0008002070477047D3
:103A3000044B0246196809B9034919601868024421
:0C3A40001A607047C0AC0020BCAD002034
:043A4C00F8B500BF0A
:043A5000F8B500BF06
:103A5400000000000000000001020304060708093A
:103A64001004110412041304140415041604170496
:103A7400180419041A041B041C041D041E041F0446
:103A840020042104220423042404250426042704F6
:103A9400280429042A042B042C042D042E042F04A6
:103AA4003004310432043304340435043604370456
:103AB400380439043A043B043C043D043E043F0406
:103AC40091259225932502252425612562255625D5
:103AD40055256325512557255D255C255B25102536
:103AE400142534252C251C2500253C255E255F2521
:103AF4005A25542569256625602550256C2567259A
:103B040068256425652559255825522553256B2597
:103B14006A2518250C25882584258C259025802543
:103B24004004410442044304440445044604470455
:103B3400480449044A044B044C044D044E044F0405
:103B44000104510404045404070457040E045E04DD
:103B5400B0001922B7001A221621A400A025A00043
:103B6400610062006300640065006600670068002D
:103B740069006A006B006C006D006E006F007000DD
:103B8400710072007300740075007600770078008D
:103B940079007A00A100A200A300A500AC00AF0048
:103BA400E000E100E200E300E400E500E600E700F5
:103BB400E800E900EA00EB00EC00ED00EE00EF00A5
:103BC400F000F100F200F300F400F500F600F80054
:103BD400F900FA00FB00FC00FD00FE00FF000101FB
:103BE40003010501070109010B010D010F01110179
:103BF40013011501170119011B011D011F012101E9
:103C040023012501270129012B012D012F01310158
:103C14003301350137013A013C013E0140014201C3
:103C24004401460148014B014D014F01510153012B
:103C34005501570159015B015D015F016101630198
:103C44006501670169016B016D016F017101730108
:103C5400750177017A017C017E019201B103B203FF
:103C6400B303B403B503B603B703B803B903BA0384
:103C7400BB03BC03BD03BE03BF03C003C103C30333
:103C8400C403C503C603C703C803C903CA03300476
:103C9400310432043304340435043604370438045C
:103CA40039043A043B043C043D043E043F0440040C
:103CB40041044204430444044504460447044804BC
:103CC40049044A044B044C044D044E044F0451046B
:103CD4005204530454045504560457045804590414
:103CE4005A045B045C045E045F0470217121722138
:103CF40073217421752176217721782179217A2104
:103D04007B217C217D217E217F2141FF42FF43FFD6
:103D140044FF45FF46FF47FF48FF49FF4AFF4BFF6B
:103D24004CFF4DFF4EFF4FFF50FF51FF52FF53FF1B
:103D340054FF55FF56FF57FF58FF59FF5AFF000025
:103D4400410042004300440045004600470048004B
:103D540049004A004B004C004D004E004F005000FB
:103D640051005200530054005500560057005800AB
:103D740059005A002100E0FFE1FFE5FFE2FFE3FF05
:103D8400C000C100C200C300C400C500C600C70013
:103D9400C800C900CA00CB00CC00CD00CE00CF00C3
:103DA400D000D100D200D300D400D500D600D80072
:103DB400D900DA00DB00DC00DD00DE007801000160
:103DC40002010401060108010A010C010E0110019F
:103DD40012011401160118011A011C011E0120010F
:103DE40022012401260128012A012C012E0130017F
:103DF40032013401360139013B013D013F014101EA
:103E04004301450147014A014C014E015001520151
:103E14005401560158015A015C015E0160016201BE
:103E24006401660168016A016C016E01700172012E
:103E34007401760179017B017D0191019103920363
:103E440093039403950396039703980399039A03A2
:103E54009B039C039D039E039F03A003A103A30351
:103E6400A403A503A603A703A803A903AA03100494
:103E7400110412041304140415041604170418047A
:103E840019041A041B041C041D041E041F0420042A
:103E940021042204230424042504260427042804DA
:103EA40029042A042B042C042D042E042F040104B9
:103EB40002040304040405040604070408040904B2
:103EC4000A040B040C040E040F0460216121622116
:103ED40063216421652166216721682169216A21A2
:103EE4006B216C216D216E216F2121FF22FF23FFA5
:103EF40024FF25FF26FF27FF28FF29FF2AFF2BFF8A
:103F04002CFF2DFF2EFF2FFF30FF31FF32FF33FF39
:103F140034FF35FF36FF37FF38FF39FF3AFF000023
:103F2400808182838485868788898A8B8C8D8E8F15
:103F3400909192939495969798999A9B9C9D9E9F05
:103F4400808182838485868788898A8B8C8D8E8FF5
:103F5400B0B1B2B3B4B5B6B7B8B9BABBBCBDBEBFE5
:103F6400C0C1C2C3C4C5C6C7C8C9CACBCCCDCECFD5
:103F7400D0D1D2D3D4D5D6D7D8D9DADBDCDDDEDFC5
:103F8400909192939495969798999A9B9C9D9E9FB5
:103F9400F0F0F2F2F4F4F6F6F8F9FAFBFCFDFEFFA9
:103FA40001030507090E10121416181C1E222A3AC2
:103FB4003C3E3F7C7F002B2C3B3D5B5D00456D70A0
:103FC40074792066696C652025530D0025533A20C9
:103FD4006E6F7420666F756E640D004F70656E466B
:103FE400696C65206572726F723A2025750D000D3B
:103FF400486172644661756C740D00556E68616E3B
:10400400646C65642025530D004148424672657115
:104014003D25754D487A3B204150423146726571C9
:104024003D25754D487A3B204150423246726571B8
:104034003D25754D487A0D00566563746F723538A9
:1040440000566563746F72354300566563746F720E
:10405400363000566563746F723634005665637487
:104064006F72363800566563746F72394300566553
:1040740063746F72453000202C00000000000000C3
:1040840000000000B5260008752800080F28000865
:104094002B280008B7260008CB2A0008707FFFFFF2
:1040A40000000000132800082F2800086C7FFFFF81
:1040B40000000000CF2A0008D726000800000000F6
:1040C40000000000852C0008E32A0008EF2A0008FD
:1040D4000D4572617365206661696C0D00577269E4
:1040E4007465204661696C0D002E0000000000001C
:1040F4000100000001000000CF00000000000000EB
:1041040000000000010000002D000000020000007B
:104114000000000000000000010000000100000099
:104124004800000000000000000000000100000042
:104134004800000002000000000000003230313965
:10414400303931355F3038313700426F6F74205465
:104154006F665374616E6446313033000D2553200D
:1041640025530D0A004653206572726F720D004686
:10417400772A2E62696E0046696C652073656172E8
:104184006368206661696C0D002553206E6F74208E
:10419400666F756E640D00466F756E643A20255324
:1041A4000D004572726F723A20746F6F206C6172E9
:1041B40067652066696C650D0052656164206572EF
:1041C400726F720D000D57726974696E6720646FA7
:1041D4006E650D006D61696E00000000F841000815
:1041E40008AD0020B8AD0020010000008D320008A9
:1041F4000000000069646C65000000000C440008C5
:10420400BCAD0020BCAD0020BCAD00200C440008B7
:104214000000000000000000000000000C44000842
:104224000000000000000000000000000C44000832
:104234000000000000000000000000000C44000822
:104244000000000000000000000000000C44000812
:104254000000000000000000000000000C44000802
:104264000000000000000000000000000C440008F2
:1042740000000000000000000000000000000240F8
:1042840008000240010000000000000B0000024092
:104294001C000240020000000004010C0000024067
:1042A40030000240040000000008020D000002403B
:1042B4004400024008000000000C030E000002400D
:1042C40058000240100000000010040F00000240DB
:1042D4006C000240200000000014051000000240A1
:1042E4008000024040000000001806110004024053
:1042F4000804024080000000000007380004024067
:104304001C040240000100000004083900040240BB
:1043140030040240000200000008093A0004024090
:1043240044040240000C0000000C0A3B000402405C
:1043340058040240000C000000100B3B0000000079
:104344000000000000000000000000000000000069
:104354000000000000000000000000000000000059
:104364000000000000000000000000000000000049
:104374000000000000000000000000000000000039
:104384000000000000000000000000000000000029
:0C4394000000000000000000000000001D
:0843A00048BFFF7F010000008F
:1043A8000408002000000000604300088043000863
:1043B800404300080000000000000000000000006A
:1043C80000000000000000000000000000000000E5
:1043D80000000000000000000000000000000000D5
:1043E80000000000000000000000000000000000C5
:1043F80000000000000000000000000000000000B5
:0444080000000000B0
:04000005080001B13D
:00000001FF
