:020000040800F2
:10000000000400201102000813020008B90B0008C8
:10001000130200081302000813020008130200086C
:10002000130200081302000813020008613E0008D2
:10003000130200081302000813020008130200084C
:10004000130200081302000813020008130200083C
:100050001302000813020008C90B00080D0C000869
:10006000510C0008950C0008D90C000891480008B4
:10007000C1480008F5480008294900085D49000802
:100080008D490008C1490008130200081302000846
:100090001302000813020008130200081D0D0008D7
:1000A00013020008130200081302000813020008DC
:1000B00013020008130200081302000813020008CC
:1000C000130200081302000813020008E5120008DA
:1000D0001913000813020008130200081302000895
:1000E000610D000813020008130200081302000843
:1000F000130200081302000813020008F549000863
:100100001302000813020008E12E00084D13000836
:10011000130200081302000813020008130200086B
:10012000294A0008594A00088D4A0008C14A0008B7
:10013000F54A000813020008130200081302000821
:10014000130200081302000813020008D945000832
:10015000254B0008594B00088D4B0008130200087E
:10016000130200081302000813020008130200081B
:10017000130200081302000813020008130200080B
:1001800013020008130200081302000813020008FB
:1001900013020008130200081302000813020008EB
:1001A00013020008130200081302000813020008DB
:1001B00013020008130200081302000813020008CB
:1001C000F50100084D25000839500008D10100084C
:1001D00010B5054C237833B9044B13B10448AFF381
:1001E00000800123237010BDD8090020000000000A
:1001F000A45B000808B5034B1BB103490348AFF3E8
:10020000008008BD00000000DC090020A45B00089D
:100210001CE000F000F8FEE72DE9F04FC1F80CD02B
:10022000C3689D46BDE8F08F03F0EEF9002383F329
:1002300011882846A047002003F03AFD03F0D4F9C6
:1002400003F056FB03F0E0F900DFFEE772B6274843
:1002500080F30888264880F3098826484EF608511E
:10026000CEF200010860022080F31488BFF36F8F84
:1002700003F026FE00F09CFF4FF055301E491B4A4C
:1002800091423CBF41F8040BFAE71C49184A9142DD
:100290003CBF41F8040BFAE719491A4A1A4B9A4233
:1002A0003EBF51F8040B42F8040BF8E70020174951
:1002B000174A91423CBF41F8040BFAE703F004FEF1
:1002C00003F0FFFD134C144DAC4203DA54F8041B49
:1002D0008847F9E701F088FE104C114DAC4203DA73
:1002E00054F8041B8847F9E703F0ECBD0004002034
:1002F000000800200000000800000020000400208A
:10030000A45B000800080020D8090020D8090020BC
:100310001C360020C0010008CC010008CC010008F8
:10032000D001000853B94AB9002908BF00281CBFF2
:100330004FF0FF314FF0FF3000F07AB9ADF1080C0B
:100340006DE904CE00F006F8DDF804E0DDE90223F3
:1003500004B070472DE9F0478C460E460446089DD0
:10036000002B50D18A4217466CD9B2FA82FEBEF1F8
:10037000000F0BD0CEF1200C01FA0EF620FA0CFC87
:1003800002FA0EF74CEA060C00FA0EF43A0CBCFB2B
:10039000F2F9BBB202FB19CC09FB03FA4FEA14488D
:1003A00048EA0C46B2450AD9F61909F1FF3180F046
:1003B0002581B24540F22281A9F102093E44A6EB13
:1003C0000A06B6FBF2F002FB106600FB03F3A4B2D0
:1003D00044EA0644A34209D9E41900F1FF3280F04F
:1003E0000B81A34240F2088102383C440021E41A08
:1003F00040EA0940002D62D0002324FA0EF42C605C
:100400006B60BDE8F0878B4207D9002D55D00021E5
:1004100085E841000846BDE8F087B3FA83F100297A
:1004200040F08F80B34202D3824200F2FC80841AF3
:1004300066EB03060120B446002D40D085E810107D
:10044000BDE8F08712B90127B7FBF2F7B7FA87FECC
:10045000BEF1000F35D10121F61B4FEA174C1FFAF0
:1004600087F8B6FBFCF20CFB126608FB02F0230CCB
:1004700043EA0646B04207D9F61902F1FF3302D229
:10048000B04200F2D2801A46361AB6FBFCF00CFBE2
:10049000106608FB00F8A3B243EA0644A04507D95A
:1004A000E41900F1FF3302D2A04500F2B9801846EA
:1004B000A4EB080440EA02409CE729462846BDE830
:1004C000F08707FA0EF7CEF1200326FA03F24FEA7F
:1004D000174CB2FBFCF11FFA87F80CFB112206FA4D
:1004E0000EF620FA03F301FB08F933431E0C46EA2B
:1004F0000246B14500FA0EF409D9F61901F1FF32AE
:1005000080F08C80B14540F2898002393E44A6EBF0
:100510000906B6FBFCF00CFB106200FB08F99EB26A
:1005200046EA0246B14507D9F61900F1FF3371D208
:10053000B1456FD902383E44A6EB090640EA0141B5
:100540008FE7C1F1200722FA07F88B4048EA03033E
:1005500026FA07F44FEA134EB4FBFEF91FFA83FCA8
:100560000EFB19448E4020FA07F809FB0CFA48EA02
:1005700006084FEA184646EA0444A24502FA01F288
:1005800000FA01F608D9E41809F1FF3044D2A24577
:1005900042D9A9F102091C44A4EB0A04B4FBFEF001
:1005A0000EFB104400FB0CFC1FFA88F848EA0444D8
:1005B000A44507D9E41800F1FF3E29D2A44527D964
:1005C00002381C4440EA0940A0FB0289A4EB0C0C51
:1005D000CC45C246CE4615D312D055B1B6EB0A0370
:1005E0006CEB0E0606FA07F7CB401F43CE402F6098
:1005F0006E600021BDE8F0871046F7E68946DEE62A
:100600004645EAD2B8EB020A69EB030E0138E4E78B
:100610007046D7E718468FE78146BDE7114676E773
:1006200002383C4444E7084606E7023A3E442BE7DA
:10063000704700BF4FF48072064B82B09A6100236E
:100640000193019B132B02D8019B0133F8E702B001
:10065000704700BF000002404FF48072074B82B029
:100660009A6100220192019A132A02D8019A01325A
:10067000F8E74FF080729A6102B0704700000240C4
:100680000368197303689A68D207FCD5187B704712
:1006900037B57B4A7B4C136B054643F00403136369
:1006A000236823F440532360236843F4805323607A
:1006B000636823F04003636063686360E36823F466
:1006C0004053E360E368E360A36823F44053A3600E
:1006D000A36843F40053A360136B43F00403136354
:1006E000236823F00C032360236843F00403236092
:1006F000636823F00203636063686360E36823F068
:100700000C03E360E368E360A36823F00C03A360D9
:10071000A36843F00803A3600223A361136B43F0B3
:1007200001031363584B196821F4403119601968AB
:1007300041F480311960596821F480715960596819
:100740005960D96821F44031D960D968D960996875
:1007500021F440319960996841F400319960116B3E
:1007600041F001011163196821F4406119601968B1
:1007700041F400611960596821F020015960D9687D
:1007800021F44061D960D968D960996821F4406149
:100790009960996841F400619960196A21F47001C7
:1007A0001962196A41F4A0011962116B41F001014B
:1007B0001163196821F440511960196841F400511E
:1007C0001960596821F040015960D96821F44051FD
:1007D000D960D968D960996821F4405199609968C5
:1007E00041F400519960196A21F070611962196A27
:1007F00041F0A0611962116B41F0010111631A68A7
:1008000022F440421A601A6842F400421A605A68A0
:1008100022F080025A60DA6822F44042DA60DA6834
:10082000DA609A6822F440429A609A6842F4004280
:100830009A601A6A22F070421A621A6A42F0A04262
:100840001A62FFF7F7FE0023104A19468DE80C00E4
:100850001A4600F0C9FC2A684620136843F040039A
:1008600013604FF48003A36103F02BFA40234FF48D
:100870008770A36103B0BDE8304003F022BA00BF27
:10088000003802400008024000000240404B4C008B
:100890004FF40032074B82B09A6100220192019A14
:1008A000132A02D8019A0132F8E702229A6102B0B3
:1008B000704700BF000802404FF0807208B5044B3B
:1008C0009A61FFF7DDFEBDE80840FFF7B3BE00BF49
:1008D0000000024038B515464FF080720446074BC1
:1008E0009A61FFF7CDFEFFF7B7FE29462046FFF7D6
:1008F000C7FEBDE83840FFF79DBE00BF00000240C4
:1009000038B515464FF0807204460A4B9A61FFF7DE
:10091000B7FEFFF7A1FE290A2046FFF7B1FEFFF759
:100920009BFEE9B22046FFF7ABFEBDE83840FFF77B
:1009300081BE00BF0000024070B505461E460C4651
:1009400099B34B1E5C42C2F38F224FF007015C410A
:10095000C6F31506FFF7D4FF202383F3118802F0B6
:1009600043FE4FF08072184B44F040019A612846D4
:10097000FFF786FEFFF770FE310C2846FFF780FE7A
:10098000FFF76AFEC6F307212846FFF779FEFFF757
:1009900063FEF1B22846FFF773FEFFF74BFE02F04D
:1009A00033FE002383F3118870BD202383F3118865
:1009B00002F01AFEA0212846FFF77EFF02F024FE77
:1009C00084F3118870BD00BF000002404FF08072B8
:1009D00010B50446074B41F020019A61FFF750FE25
:1009E000FFF73AFE00212046FFF74AFEFFF722FEFE
:1009F00010BD00BF000002404FF0807238B50446C1
:100A00000C4B41F020019A61FFF73AFEFFF724FEFC
:100A100000212046FFF734FE0546FFF71DFE0021AA
:100A20002046FFF72DFEFFF705FE40EA052080B2C5
:100A300038BD00BF000002404FF0807270B505461F
:100A4000104B41F020019A61FFF71AFEFFF704FEF8
:100A500000212846FFF714FE0646FFF7FDFD0021A2
:100A60002846FFF70DFE0446FFF7F6FD0021284655
:100A7000FFF706FEFFF7DEFD240244EA06442043AA
:100A800070BD00BF00000240202383F3118802F0F4
:100A9000CDBD08B502F0DCFD002383F3118808BD4D
:100AA00010B50446FFF7F0FF236820461B689847FF
:100AB000BDE81040FFF7EDBF044B9B68C3F38223F2
:100AC000032B034B586888BF400070470038024032
:100AD000F409002073B5037F1D4C8DF805300546E1
:100AE00002F0F8FDD4F8AC30002B19DD02F0F2FD75
:100AF000D4F8AC300099013BC4F8AC30D4F8943051
:100B0000144803F10802C4F894201960019959604F
:100B100004F190039A4228BFC4F8944002F054FFB5
:100B20006B7F012B11D1AE6902F0D4FD2B692C1D16
:100B300013B1204603F054F92B4631462046064AAD
:100B400002B0BDE8704003F0FFB802B070BD00BF56
:100B5000680B0020000C0020A10A0008884230B574
:100B600016D0421E12F8014FA4F14103192B88BF81
:100B7000204611F8013B98BF04F12000A3F1410584
:100B8000192D98BF2033C01A03D1002CEAD130BDF3
:100B9000002030BD074B01385A6922F080025A61AB
:100BA00010F8012F22B119680906FCD55A60F7E741
:100BB000704700BF0010014008B50248FFF7EAFF88
:100BC00001BEFEE7C453000808B502F053FDFFF76D
:100BD0005BFF0A4B1B685BB198470122084B5A61C7
:100BE000FFF757FF02F05EFDBDE8084003F042B991
:100BF0000449054800F0DCFCEFE700BF000A0020D4
:100C0000003C01401C540008D053000808B502F015
:100C100031FDFFF739FF0A4B5B685BB19847022251
:100C2000084B5A61FFF735FF02F03CFDBDE8084074
:100C300003F020B90449054800F0BAFCEFE700BF13
:100C4000000A0020003C014025540008D053000851
:100C500008B502F00FFDFFF717FF0A4B9B685BB169
:100C600098470422084B5A61FFF713FF02F01AFD60
:100C7000BDE8084003F0FEB80449054800F098FCC0
:100C8000EFE700BF000A0020003C01402E5400089E
:100C9000D053000808B502F0EDFCFFF7F5FE0A4B53
:100CA000DB685BB198470822084B5A61FFF7F1FEF9
:100CB00002F0F8FCBDE8084003F0DCB80449054840
:100CC00000F076FCEFE700BF000A0020003C014086
:100CD00037540008D053000808B502F0CBFCFFF7EA
:100CE000D3FE0A4B1B695BB198471022084B5A612F
:100CF000FFF7CFFE02F0D6FCBDE8084003F0BAB81B
:100D00000449054800F054FCEFE700BF000A00204A
:100D1000003C014040540008D053000808B502F0E0
:100D2000A9FCFFF7B1FE0A4B1B6863B198474FF46B
:100D30007872084B5A61FFF7ACFE02F0B3FCBDE8D5
:100D4000084003F097B80449044800F031FCEEE78E
:100D5000180A0020003C014049540008D053000804
:100D600008B502F087FCFFF78FFE0A4B1B6863B1E2
:100D700098474FF47C42084B5A61FFF78AFE02F015
:100D800091FCBDE8084003F075B80449044800F040
:100D90000FFCEEE7140A0020003C0140525400080A
:100DA000D0530008074B1A6842F480321A6042F2AE
:100DB0000F721968890303D4013AFAD102207047EF
:100DC0000020704700380240074B1A6842F08072DA
:100DD0001A6042F20F721968890103D4013AFAD1FC
:100DE000022070470020704700380240F0B50446EA
:100DF0003D4887B0836803F00C03042B71D0082BA7
:100E000057D03A4B3A4A02AE02F110073546106805
:100E10005168083203C5BA422E46F7D1324806A9B6
:100E2000826806ADC2F303120A4412F8102C0121A5
:100E3000D34000228DF800208DF801208DF802208B
:100E40008DF8032002228DF8052003228DF806205C
:100E500004228DF804108DF8072023608268C2F305
:100E600082222A4412F8182C23FA02F26260826865
:100E7000C2F342322A4412F8182CD3401D4AA36010
:100E8000136823F001031360FFF716FE42F210739C
:100E9000B0FBF3F00138536A9062516100BF00BFAC
:100EA00000BF00BF5362136843F00103136007B033
:100EB000F0BD45684368426841680C4811F4800FF2
:100EC0000D4908BF014605F03F05B1FBF5F1C3F33D
:100ED00088134B43C2F3014201325200B3FBF2F3D9
:100EE00090E7054B8EE700BF003802400024F40075
:100EF000B4530008000C0040001BB7000F4B994290
:100F00000FD003F5806399420BD003F570539942DB
:100F100007D003F58063994203D003F580639942BB
:100F200009D1074B9B68C3F34233032B054B9868E9
:100F300088BF40007047FFF7BFBD00BF0000014001
:100F400000380240F409002010B5074CA06820F4D6
:100F50007C4020F0F00040EA433343EA822343EA36
:100F60000113A36010BD00BF0038024010B5044655
:100F7000FFF718FF90B92046FFF726FF80B9094B0D
:100F80009A6822F003029A609A6842F002029A601C
:100F90009A6802F00C02082AFAD110BD012010BD97
:100FA000022010BD003802403A4B10B51868A2F676
:100FB0008D2420F00F00B4F5617F40F4C0631CD293
:100FC0001E2916DD3C2902DC43F0010311E05A29F9
:100FD00004DC40F4C06343F002030AE0782902DC39
:100FE00040F4C0631CE0962940F4C06331DC43F058
:100FF0000403284A0020136010BD6FF4166414190E
:10100000B4F5967F0FD21829F3DD302902DC40F4C5
:10101000C063D9E74829DCDD602940F4C063E6DC21
:1010200043F00303E5E7A2F63504B4F5967F13D247
:101030001229DEDD2429EADD3629CADD4829CFDD83
:101040005A2902DC40F4C063D1E76C2940F4C06344
:1010500017DC43F00503CCE7A2F27362B2F5E17F3F
:1010600015D21029C5DD2029D1DD3029B1DD402977
:10107000B6DD5029E6DD602940F4C063E9DD702962
:1010800002DC43F00603B4E743F00703B1E70120B5
:1010900010BD00BF003C024006480749836805C8F0
:1010A000B3FBF1F3B2FBF1F2B0FBF1F1034800F056
:1010B00053BA00BFF409002040420F00DE5300087D
:1010C000364A38B513680F2943F4807304460D4639
:1010D000136058DDFFF766FE00285ED1304A182DF8
:1010E000136823F0807313602DD00BD8102D17D008
:1010F0002046FFF769FE00284FD12046BDE8384062
:10110000FFF734BF302D2ED0482DF1D1244B196874
:1011100011F0807141D1234A5A60042305222BE04B
:101120001F4A136813F0807337D11F49204651605E
:101130001A460921FFF708FF40F6E4421021204635
:10114000FFF732FFD4E7164A136813F0807324D1F7
:101150001649204651601A460821FFF7F5FE40F671
:10116000E4421821EBE70E4B196811F0807114D19D
:101170000E4A5A6004231A462046FFF7E5FE40F661
:10118000E4423021DBE71829DDD002D81029C7D08E
:1011900038BD3029E7D04829B8D038BD003C0240DE
:1011A000003802400C484106063042080630430829
:1011B0004FF0805200210A4B1A640A4A11601A68E3
:1011C00042F001021A601A689207FCD55A6C42F488
:1011D00080425A645A6E42F480425A665B6E70478F
:1011E000003802400070004070B50068394D049C22
:1011F000A84246D105F584356E6C46F480566E647F
:101200006E6E26F480566E666D6E4FF44175012940
:10121000056002BF016841F080010160012A02BF40
:10122000026842F002020260012B02BF036843F031
:1012300001030360274B9842274B0CBF9B685B68F8
:10124000B3FBF4F37F2B38DC3F2B38DC1F2B38DC6F
:101250000F2B38DC072B38DC032B38DC012BD4BFF9
:1012600000230123026842EAC30303609DF814309F
:10127000012B02BF036843F4006303600023436053
:1012800070BD164DA8420BD105F500352E6C46F405
:1012900080462E642E6E26F480462E662D6EB4E7B0
:1012A0000F4DA842B1D105F5FE352E6C46F400462F
:1012B0002E642E6E26F40046EFE70723D2E70623BE
:1012C000D0E70523CEE70423CCE70323CAE70223B4
:1012D000C8E700BF00300140F4090020003800409A
:1012E000003C004008B502F0C5F9FFF7CDFB084B04
:1012F0009B68DB0703D5074B1B6803B19847FFF7D3
:10130000C8FB02F0CFF9BDE8084002F0B3BD00BF52
:10131000003001401C0A002008B502F0ABF9FFF7CD
:10132000B3FB084B9B68DB0703D5074B1B6803B176
:101330009847FFF7AEFB02F0B5F9BDE8084002F0B0
:1013400099BD00BF00380040200A002008B502F017
:1013500091F9FFF799FB084B9B68DB0703D5074B17
:101360001B6803B19847FFF794FB02F09BF9BDE8B7
:10137000084002F07FBD00BF003C0040240A00206E
:101380002DE9F04305469846002485B09DF830903D
:1013900001AEB1FBF2F302FB1310092804F10104C2
:1013A00094BF30303730C0B23719194607F8010CF6
:1013B000002BEED1274647450DD22B6849461B68C6
:1013C0002846984718B10C2005B0BDE8F0830137D6
:1013D000F1E7002CF8D02B68013C1B68315D2846F2
:1013E00098470028F5D0EEE72DE9F04F0B4605466B
:1013F00014464FF00A0B85B019785E1C31B92846A7
:101400002B685B6805B0BDE8F04F1847252905D06B
:101410002B6828461B68984748B3F0E75F784FF081
:101420000008302F14BF20279E1C16F8011BA1F1C5
:101430003003DBB2092B03D92A2904D123780434E1
:101440000BFB0838F1E72E2909D116F8011BA1F191
:101450003003092BF9D92A2901D10434F5E763298E
:1014600039D017D841294ED003D82529D0D03346BA
:10147000C2E7532939D05829F9D14346102204F143
:101480000409009721682846FFF77AFF0028B6D1A3
:101490004C46ECE7692902D013D86429E7D104F15E
:1014A00004092468002C07DA2B682D211B682846C4
:1014B00098470028A3D16442009743460A22214658
:1014C000E1E7732911D07529D1D104F104090097FE
:1014D00043460A22D6E72B6821781B682846271D39
:1014E000984700288BD13C46C1E72768013F17F891
:1014F000011F09B90434BAE72B6828461B689847CE
:101500000028F4D07BE700272368D4F80880D4F8BB
:10151000049003935FFA88FA4F4501DB0C34A6E789
:10152000002F0DDC039B1022D95D30232846009349
:101530000223FFF725FF00287FF461AF0137EBE7B7
:10154000B8F1000FEED02B6851461B68284698472B
:101550000028E7D053E700000FB413B504AB53F8ED
:10156000044B0193202383F3118802F03DF8019A84
:1015700021460648FFF738FF02F046F8002383F3C0
:10158000118802B0BDE8104004B07047E02C002084
:101590000FB407B504AA52F8041B04480192FFF7E0
:1015A00023FF03B05DF804EB04B07047E02C00208B
:1015B0000FB407B504AA52F8041B04480192FFF7C0
:1015C00013FF03B05DF804EB04B07047E02C00207B
:1015D0007047000008B5064C40F2DE3002F071FBA7
:1015E00020680028F8D003685B689847F4E700BFDC
:1015F000480B00200EB403B503AA52F8041B00F5F3
:10160000025010300192FFF7EFFE02B05DF804EBDC
:1016100003B07047A0F19400A0F50050EAE7000085
:10162000F0B5364CA04245D1354D2C6B44F0010449
:101630002C6303244E00B440E44305682540056054
:1016400002250768B5403D4305600125002A51D1B8
:1016500042688D4022EA05054560C268072902EA12
:101660000402C260C56803FA06F242EA0502C260DB
:101670008368C8BF083904EA03044FF0020384609A
:10168000826803FA06F343EA02038360CCBF0123B6
:1016900000230F2200EB8300036A89008A4023EABB
:1016A000020303629DF81430026A03FA01F1114348
:1016B0000162F0BD134CA04204D1114D2C6B44F0DB
:1016C0000204B5E7104CA04204D10D4D2C6B44F040
:1016D0000404ADE70D4CA04204D1094D2C6B44F03D
:1016E0000804A5E70A4CA042A3D1054D2C6B44F099
:1016F00010049DE742688D401543ADE700000240AD
:10170000003802400004024000080240000C024081
:101710000010024042F210028158831842F21C026B
:1017200082585B1A934228BF134642F2200210B53A
:10173000835073B142F21802002484544268126844
:10174000D1605360C3681B6A1360136843F00103E0
:10175000136010BD436830B41A68116821F01F018E
:1017600011601168C907FCD4597A5A683D238B402F
:10177000136042F21C0242F22003C45883581B1B20
:10178000835042F21002815885182144A94228BF93
:1017900000F1100181503BB930BC42F21803012224
:1017A000C25403681B68184730BCFFF7B3BFFFF78C
:1017B000D1BF42F21C03C35810B5B3F5005F15D278
:1017C00042F21403C258541CC4501170C15800F5A1
:1017D00000521032914224BF00F11002C25042F276
:1017E0001C02835801338350002010BD0C2010BD13
:1017F000FFF7DFBFA0F19000A0F50050F8E742F23C
:101800001803C35C0BB1FFF785BF7047FFF7F7BF45
:10181000A0F19000A0F50050F8E742F2280283689A
:1018200010B51B6804465B688058C3F163031B1A3C
:1018300048BF633363B1431CA35042F22C032044DE
:10184000C35C00200B70A358622B02DDA05010BDBA
:101850000B2010BD7FB542F28F03C35C0646002B00
:101860006BD000F5025418340DF107013046FFF734
:10187000D4FF002861D194F868209DF807303AB170
:10188000082B84F868006066EED00D2B0AD1EBE7D8
:10189000082B05D1636E002BE6D0013B6366E3E7BE
:1018A0000D2B01D00A2B41D1636E002BDCD000251B
:1018B0002349E554204603F053FC012342F28F02F2
:1018C00084F86830E0668DF80D30B554202383F33A
:1018D00011881C4D01F088FE01F0FCFED5F8AC30FB
:1018E000002B1BDD01F0F6FED5F8AC3006F50252F8
:1018F000013BC5F8AC30D5F89430143203F108013F
:10190000C5F894101A60039A0F485A6005F19003C5
:10191000994228BFC5F8945002F056F802F008F832
:1019200001F072FE002383F311889DE7626E612A45
:101930009AD8511C6166A35496E704B070BD00BFED
:101940005B540008680B0020000C0020C168084AA6
:101950004B6809689342074A02D00748834204D182
:101960009268B2FBF1F29A6070475268F9E700BFE3
:1019700000100140F40900200014014013B5044692
:10198000C068634A4368934220D002F58062934264
:101990001CD002F5444293420CBF082307238189DF
:1019A0000093002380681A46FFF73AFEE368594A1D
:1019B0005B6893420CD1584B5A6C42F010025A6447
:1019C0005A6E22F010025A665B6E0EE00823E6E7BC
:1019D000524A934269D1504B1A6C42F400321A6455
:1019E0001A6E22F400321A661B6E2046FFF7AEFF15
:1019F0000022E0680921436880691A612346484A49
:101A000003F064F902686060E0684368191D916042
:101A1000016A116042F218020121A1540C22DA601D
:101A2000C0225A613A4A934270D002F580629342D2
:101A30006CD002F5444293420CBF08230723818AED
:101A40000093012300691A46FFF7EAFD0023E068CE
:101A50001A460921C06903F039F90368A060E068FB
:101A60004268111D996004F500512C31D960632141
:101A70005960416A1960196841F001011960D36821
:101A800043F40053D360274B1A6802B91C60264CFC
:101A9000236843B900938022244B4FF4907124486B
:101AA00002F0C4F8206002B010BD224A934208D16F
:101AB000194B1A6C42F480221A641A6E22F48022A6
:101AC00091E7134A934208D1134B1A6C42F4002257
:101AD0001A641A6E22F4002285E7174A934208D14D
:101AE0000D4B1A6C42F480121A641A6E22F48012A2
:101AF00079E7124A93427FF478AF074B5A6C42F071
:101B000020025A645A6E22F020025CE7082396E70E
:101B1000004C0040001001400038024000440040EA
:101B2000AF170008480B00204C0B0020D51500080B
:101B3000280A0020004800400050004000140140E6
:101B400010B52023044683F3118801F04DFD0122D6
:101B500042F28F03E25401F057FD002383F3118812
:101B600010BDFFF7EDBFA0F19400A0F50050F8E71D
:101B700010B5044601F0AEFDE36823B12046BDE890
:101B8000104002F02DB910BD0148FEF781BE00BF24
:101B90004C0C0020144B984205D1144A136B43F0AF
:101BA000010313637047124B984204D10F4A136B21
:101BB00043F00203F5E70F4B984204D10B4A136B35
:101BC00043F00403EDE70C4B984204D1074A136B32
:101BD00043F00803E5E7094B9842E3D1034A136B4E
:101BE00043F01003DDE700BF000002400038024070
:101BF0000004024000080240000C024000100240B5
:101C000008B5FEF7ABFFB0FA80F0400908BD838845
:101C1000016803F11002012393408B61704710B5F6
:101C2000C36904461B793BB92C30FFF7F0FFE36929
:101C300000200833E36110BD0123018EC26A8B408E
:101C40009361F4E708B52C30FFF7E1FF08BD000011
:101C50002DE9F0410326047905686400074690F8F1
:101C60000680E4B22846FFF795FF06FA04F3DB434B
:101C70002A6808FA04F41A402A60EA681340EB6004
:101C8000EB681C43394BEC605A6CBC8842F48042D0
:101C90005A645A6E22F480425A6604EA06029000A0
:101CA0000F225B6E04F47F7303F1804303F59C33D2
:101CB0009D68824025EA02029A602D4D3A68AA4248
:101CC00003D101229D6882400BE02A4DAA4202D135
:101CD0009D680222F7E7284DAA4219D19D6806FAAD
:101CE00000F22A439A600120244BA0401A6801297F
:101CF00042EA00021A606FEA00025C6804EA020429
:101D00005C602AD022D302292DD05861BDE8F08131
:101D10001B4DAA4202D19D680422D4E7194DAA4264
:101D200002D19D680522CEE7174DAA4202D19D68D7
:101D30000622C8E7154DAA4202D19D680722C2E7D4
:101D4000134DAA42CFD19D680822BCE79968014390
:101D50009960D9680A40DA60D7E799680A409A60C2
:101D6000DA680243F7E79A680243F8E7003802406E
:101D70000004024000080240000C0240003C014008
:101D8000001002400014024000180240001C0240F3
:101D90000020024003680A465B680149184700BFFB
:101DA000D45400080EB403B503AA52F8041B0192E0
:101DB000FFF71AFB02B05DF804EB03B07047A0F127
:101DC0000400EFE70168F8B586880546847908467F
:101DD000FFF7E0FE7300DAB203239340DB430868A9
:101DE000B440184008600120D1F800E000FA02F782
:101DF00047EA0E070F604F68B04027EA00004860CE
:101E0000486804434C60C8681840C860C868C86027
:101E1000886803408B6002238868934003438B608B
:101E20002846FFF7F4FEF8BD38B504460D4601F02C
:101E300051FCD4F8AC30002B1EDD01F04BFCD4F883
:101E4000AC3004F19800013BC4F8AC30D4F89430C5
:101E500003F10802C4F894202A681A606A685A607C
:101E6000D4F8942004F190039A4228BFC4F8944017
:101E700001F0AAFD002038BD022038BD092307B5B6
:101E8000044869468DF80530FFF7CEFF03B05DF8D2
:101E900004FB00BF680B002037B505460C46002048
:101EA0000A4903F05DF92867037863B1002201A9AC
:101EB00003F02AFA019B1B780BB10D2001E0206092
:101EC000184603B030BD0B20FBE700BF5B54000891
:101ED00037B505460C4600200A4903F041F928674A
:101EE000037863B1002201A903F00EFA019B1B786D
:101EF0000BB10D2001E02070184603B030BD0B205F
:101F0000FBE700BF5B5400082DE9F041041D0546C6
:101F100020460F4642F21076FFF72AFE40F2E730E5
:101F200000214FF47A720023E6FB0701FEF7FAF96D
:101F30002B460146024A2046BDE8F04101F004BFAD
:101F4000A10A000838B5044601F0C4FB236913B1A7
:101F5000201DFFF70DFE4FF0FF35E3691A78042AC4
:101F6000FDD8DFE802F0030A13222E002368204682
:101F70009B6898470128F0D138BD59680833E36160
:101F80000029EAD02046FFF7BFFF38BD5A68A36991
:101F900003EBC203E36194F8293023B104F1240177
:101FA0001048FFF741FF0121ECE794F8293023B1F5
:101FB00004F124010B48FFF737FF0023A361E3611D
:101FC00038BD226A013204BF5A682262226A1AB9F5
:101FD00008332562E361C0E7A369013AE361226245
:101FE000BBE700BF680B00202DE98048302189B095
:101FF000AC4FAD48FFF764F8AB48FEF7F7FE00F0D2
:102000005FFB01F0FDFC07F12C00FFF7DBFE012375
:10201000398EFA6AA54D8B409361122105F1A40017
:10202000C5F89050C5F8945001F096FC002105F1D8
:10203000980001F091FC9E48FFF7A0FC9D4A9E4944
:102040009E48FFF789FA9848FFF726F89C4802F067
:10205000B5FE9C499C4C0846FFF79CFD0B689B48CD
:1020600023F440230B60CB68A04623F44023CB60CD
:10207000CB6843F40023CB60FEF70AFB4FF4966273
:1020800005219248FEF73CFC42F6E06206218F48AB
:10209000FEF736FC072216218C48FEF71BFC1222A5
:1020A0000A218A48FEF716FC122209218748FEF70A
:1020B00011FC00212046FFF7CBFD85480021FFF7EA
:1020C000C7FDA088092800F38380042800F38280DC
:1020D0000630804C092101F053FA20460021FFF719
:1020E000B7FDA088092877DC042877DC06300921B1
:1020F00001F046FA4FF4E15001F0E3FD0121D8F878
:1021000000301A69B8F8043001FA03F3134205D11C
:10211000714B4DF2F0226D48FEF70EFC202383F345
:1021200011886E4C01F060FAA669201DFFF720FDB2
:1021300023466B4A3146201D01F006FE4FF0000990
:1021400001F062FA89F311886648FFF760FDDFF855
:1021500074A18DF81590202383F3118801F044FABF
:102160004FF0FF31604801F007FC002838D1D5F866
:1021700090305E4803F10802C5F890201C685B6847
:1021800005935B4B9A4228BFC5F8905001F01CFCA8
:1021900001F0CEFB01F038FA89F311889DF8153073
:1021A000013B082BD5D801A252F823F0E521000805
:1021B0008B240008DF240008E724000853210008CE
:1021C000532100085321000853210008C3240008AC
:1021D00028207EE717207CE7282088E7172086E75D
:1021E0000024D7E7434EBB69B34210D0202383F3CA
:1021F000118801F0F9F94FF0FF332A483B62BE61C4
:10220000FE61FFF79FFE01F0FFF989F311883A495B
:10221000206FFFF7F5FC20B100212046FFF7BAFD43
:102220000BE03649206FFFF7EBFC58B12368224AD8
:102230005E6833491F4B2046B047236820461B6821
:10224000984786E72F49206F261DFFF7D9FC002805
:102250005CD01F4B1A689988012312698B4013EADE
:10226000020B01D01221D8E71B4B08A90393264B80
:10227000304641F8083D0093FFF70EFE03A93046B3
:10228000FFF70AFE0399009B09B90721C5E7069AE3
:10229000002AFAD09A42F8D80B4602210B48FEF7E2
:1022A0004BFBB9E7180C0020F4090020680B002054
:1022B000500C0020DD540008EB540008F4540008D2
:1022C000DC32002000000240600B00204C0C00209B
:1022D000580B0020500B0020D0DD0600602D0020A0
:1022E000A10A0008440C0020000C00200C0C002067
:1022F000F80B0020B4540008FD54000802550008F3
:10230000F55400080A550008401901007F49206F64
:10231000FFF776FC28B34FF0010BD8F800301A69AC
:10232000B8F804300BFA03F3134000939AD1784BBA
:1023300008A90393774B304641F8083D0193FFF716
:10234000ABFD03A93046FFF7A7FD0399019B0029C8
:102350009BD0069A002A98D09A4296D80B465946A6
:102360009CE76D49206FFFF74BFC20B1B0216B4813
:10237000FEF7A2FA50E700906949206FFFF740FC92
:102380008346A0B1009B08A901F8083D3046FFF73D
:102390009FFD08B1052140E79DF818105F48FEF742
:1023A00015FB024601465F48FFF7D6F845E75E4950
:1023B000206FFFF725FC68B108A901F808BD304679
:1023C000FFF786FD0028E5D19DF818105348FEF769
:1023D00013FBE6E700905549206FFFF711FC834699
:1023E00070B1009B08A901F8083D3046FFF770FD69
:1023F0000028CFD19DF818104848FEF71DFBD0E704
:102400004B49206FFFF7FCFBA8B108A901F814BDE8
:102410003046FFF75DFD0028BCD106A93046FFF726
:102420003BFD0028B6D19DF818209DF80C103B48C4
:10243000FEF750FAF0E63F49206FFFF7E1FBA8B145
:1024400008A901F8149D3046FFF742FD0028A1D1EC
:1024500006A93046FFF720FD00289BD1BDF81820C3
:102460009DF80C102D48FEF74BFAD5E63248216F47
:10247000FFF772F8314802F095FC20B1226F2E4927
:102480002E48FFF78FFC0621C7E6DAF810309B05CF
:102490002DD52B4B1C7854BB01221A7003238DF8C9
:1024A0001D30202383F3118801F09EF806A92548EA
:1024B000FFF7BAFC01F03CFA01F0A6F884F31188AA
:1024C00047E62148FFF764F81C4802F06BFC00283F
:1024D0003FF43FAE1C491948FFF764FC39E6174842
:1024E00002F0E0FC35E6154802F0F6FC31E6DAF8D9
:1024F000104014F400747FF42CAE114B1A78002AAB
:102500003FF427AE1C700423C9E700BF0F55000835
:10251000D0DD060040190100125500084C0C0020C7
:10252000175500081C550008265500082C550008B2
:102530003255000837550008F8540008DC320020F6
:102540005C2D0020680B00203D5500080020002174
:10255000474B2DE9F041C3E90001C3F89030C3F8BF
:1025600094304FF4E133434A42F21001136003F117
:102570008043A3F53243536006239381072393825C
:102580000F2393610D23D3613B4BDFF8308113623E
:1025900003F58033B0335362384BC2F80880DA60F9
:1025A000C2F8108003F110025A5042F214010126C1
:1025B0005A5042F2180200249E5442F21C029C50CF
:1025C00042F220029C5042F224029C5042F2280225
:1025D0009C5042F28F029E5442F2FC029C5003F542
:1025E0000452147042F204129C5042F2081242F259
:1025F00090019C50224A022702F12000585042F2DA
:1026000094011A6030325A501E4B1F4A1F4D1A60F7
:1026100042F206729A611F771D4A5E771D4B214672
:102620001A6028462C2202F024FD4FF0FF330C21C3
:102630002B62194B194A2B60194B85F829401A60F7
:1026400099809F711749184BC5F82C8019600B2190
:10265000164B2F861A6099809F71154B85F8324072
:102660001A609C809E71134A134B1A60BDE8F0817A
:10267000680B0020802D002050040008500C002022
:1026800068540008602D002018540008180C002021
:10269000003001404C0C0020A85400080008024003
:1026A000600B0020891B0008140A0020580B002032
:1026B000500B00207D1E0008000A0020000402408C
:1026C00008B501F01DFC00F067FC00F0DFFABDE882
:1026D000084000F0EDBB202383F3118800F084BF95
:1026E00008B500F091FF002383F3118808BD0000B6
:1026F0002DE9F041069F884615461E46044610B156
:102700000AB1012B02D80D4801F0C0F900230436AC
:10271000E36007FB0652A362E362079B2460236326
:10272000089B646084F8088065612561A261E661A8
:10273000276265626363BDE8F08100BF455500080C
:1027400010B5044600F0C6FF0023626AE3606261D0
:102750002261A362E3622046BDE810406FF00101F0
:1027600001F0D5BA10B5044600F0B4FF20696269E3
:10277000904203D1E2680AB1002010BD043010BDC0
:1027800038B50D46044600F0A5FF1DB1E369043BD2
:102790009D4202D90A4801F079F9236920461D605B
:1027A000E26800210132E260E2691344A269236118
:1027B000934224BF636A2361BDE8384001F09CBAAC
:1027C0005355000838B504460D4600F093FFE36802
:1027D0003BB162690020131D1268A3621344E362D7
:1027E00038BD237A33B92946204601F075FA00280E
:1027F000EDDA38BD6FF00100FBE710B5044600F0DC
:1028000079FFE368E269013BE36063691344A2690D
:102810006361934224BF636A63610023A362236BF5
:102820001BB12046BDE81040184710BD38B504461E
:102830000D46FFF750FFA36A4BB929462046FFF724
:10284000C1FF054618B1FFF74BFF284638BDA36A04
:10285000E26A13F8015B9342A362F4D32046FFF7C8
:10286000CCFFF0E72DE9F84304460F469946904621
:1028700012B9214801F00AF9FFF72DFF0025A36ADC
:102880004BB949462046FFF79DFF20B1FFF728FFCF
:102890002846BDE8F883E66AA16A731AA8EB050624
:1028A0009E4228BF1E46402E1BD93B4601F14002E6
:1028B00051F8040B914243F8040BF9D1A36A403755
:1028C0004033A3624035A26AE36A9A4202D32046AB
:1028D000FFF793FFFFF704FF4545D9D2FFF7FBFE53
:1028E000CDE73846324602F0B9FBA36A3744334499
:1028F000A3623544E7E700BF665500082DE9F041C3
:10290000069F884615461E46044610B10AB1012BA3
:1029100002D80D4801F0BAF8043606FB0753A3614C
:102920000023A362E362079B24602363089B646027
:1029300084F80880E76065612561E6612762656269
:102940006363BDE8F08100BF7555000810B504460B
:1029500000F0C0FE236A2046E360636A6FF0010165
:10296000636123610023A362E362BDE8104001F0CC
:10297000CEB938B504460D4600F0ACFE6069226958
:10298000824203D1E2680AB1002038BD50F8043B0E
:102990002B6038BD10B5044600F09CFEE368E26988
:1029A0000133E360636920461344A2696361934283
:1029B00028BF636A4FF0000128BF6361BDE8104083
:1029C00001F09AB938B504460D4600F093FEE3686D
:1029D0003BB1236900201A1DA262E2691344E3623D
:1029E00038BD237A33B92946204601F075F900280D
:1029F000EDDA38BD6FF00100FBE7000070B50D4661
:102A0000044600F077FE1DB1E369043B9D4202D904
:102A10000C4801F03BF823691D60E268013AE2606E
:102A2000E2691344A2692361934224BF636A23616C
:102A30000023A362236B1BB12046BDE870401847FA
:102A400070BD00BF8355000870B504460E4615469C
:102A5000FFF741FEA36A4BB929462046FFF7B2FFB4
:102A6000054618B1FFF73CFE284670BDA36A1E70EC
:102A7000A36AE26A01339342A36204D3E169204668
:102A80000439FFF7BBFFFFF72BFE0025ECE7000042
:102A90002DE9F84304460D469946904612B921485F
:102AA00000F0F4FFFFF717FE0026A36A4BB9494672
:102AB0002046FFF787FF20B1FFF712FE3046BDE842
:102AC000F883E76AA06A3B1AA8EB06079F4228BF73
:102AD0001F46402F1BD905F1400355F8042B9D429A
:102AE00040F8042BF9D1A36A40364033A362A26AAE
:102AF000E36A9A4204D3E16920460439FFF77EFF76
:102B0000FFF7EEFD4645D9D2FFF7E5FDCDE72946B3
:102B10003A4602F0A3FAA36A3D443B44A3623E4412
:102B2000E5E700BF9655000810B5044600F0D2FD59
:102B3000226963699A4203D1E3681BB9184610BD44
:102B40000023FBE7A36A002BF8D0043B9B1AF5D0C7
:102B50001360E368013BE360E3691A44A3692261FF
:102B60009A4224BF636A23610023A3620123E5E73D
:102B700013B5446BD4F894341A681178042915D12C
:102B8000217C022912D11979012312898B40134229
:102B90000CD101A904F14C00FFF7EBFED4F89444EA
:102BA0000246019B2179206800F0A6FA02B010BD10
:102BB00070B50D46044610B9064800F067FF23685B
:102BC0002B43236063681BB12046BDE87040184763
:102BD00070BD00BFA65500081430FFF743BE4FF08C
:102BE000FF331430FFF73EBE4C30FFF751BF4FF0BC
:102BF000FF334C30FFF74CBF1430FFF717BE4FF0D8
:102C0000FF311430FFF712BE4C30FFF71DBF4FF0FD
:102C1000FF324C30FFF718BFD0F8942438B5136852
:102C200005461978042901D0012038BD017C02290C
:102C3000FAD1012012795C8990400440F4D105F169
:102C40001400FFF78FFD02460028EDD0D5F894540C
:102C50004FF480732868697900F02CFA204638BD5B
:102C6000406BFFF7D9BF000038B50D46144610B9C8
:102C7000054800F00BFF012D03D114B1024800F00C
:102C800005FF002038BD00BFBF5500087047000099
:102C90007FB5124B012503600023022604464360E2
:102CA0008360C3600E4B057400F1840202900193AF
:102CB000294600964FF480731430FFF719FD094B35
:102CC0000294019300964FF4807304F52372294611
:102CD00004F14C00FFF712FE04B070BDD05500089F
:102CE000612C0008712B000870B50D460E68044673
:102CF00010B90F4800F0CAFE202383F3118800F0BA
:102D000073FC2B7906EB83039C616B79093346F8DE
:102D10002340AB7913B106EB8306B4610223C4F8F8
:102D20009454237400F070FC002383F3118870BD69
:102D3000C455000838B5044600251430FFF700FDDF
:102D400004F14C002577FFF701FE201D84F8545054
:102D50000121FFF72DFF2046BDE83840FFF75CBF9B
:102D600090F8443003F06003202B19D190F84520EF
:102D7000212A0AD0222A4FF000030ED0202A0FD198
:102D8000084A82630722C26304E0064B8363072379
:102D9000C36300230364012070478363C363F9E7BF
:102DA0000020704700080020D0F8943437B51A6826
:102DB0000446117804291AD1017C022917D1197906
:102DC000012312898B40134211D100F14C05284692
:102DD000FFF7AAFE58B101A92846FFF7CAFDD4F8AB
:102DE00094440246019B2179206800F085F903B0E4
:102DF00030BD00EB8103F7B59C6905460E4614B360
:102E0000202383F3118800F011FC05EB8607201DB9
:102E10000821FFF7CDFEFB684C345B691B6813B1DA
:102E20002046FFF7B7FD01A92046FFF7A2FD0246A5
:102E300058B1019B3146284600F05EF900F008FCCD
:102E4000002383F3118803B0F0BDFB685A69126850
:102E5000002AF3D01B8A013B1340EFD105F1440255
:102E6000E8E7093138B550F82140FCB1202383F35D
:102E7000118800F0DBFBD4F894241368527903EB3B
:102E80008203DB689B695D6845B104216018FFF728
:102E90008FFE294604F11400FFF772FC2046FFF76D
:102EA000BBFE00F0D5FB002383F3118838BD7047CB
:102EB00000F032B80022034B58631A610222DA6034
:102EC000704700BF000C00400022014BDA607047E1
:102ED000000C0040014B5863704700BF000C0040DD
:102EE00010B500F0C7FB0B4B1A6992070CD50024F4
:102EF0001C61202383F3118800F098FB00F0CCFDC7
:102F000000F0A6FB84F3118800F0CCFBBDE8104074
:102F100000F0B0BF000C0040154B10B51A6C154CFA
:102F200042F008021A641A6E214642F008021A663C
:102F3000114A1B6E9368114843F008039360FDF734
:102F4000DDFF42F21073B0FBF3F04FF0FF330138B6
:102F5000A062E3620023A3616363E3606360012313
:102F60000221636132202360BDE8104000F008BBFD
:102F700000380240000C0040002004E0F40900206A
:102F8000202383F3118800F051BB08B500F060FBEB
:102F9000002383F3118808BD01F04EB801230370AC
:102FA00000234360C36183620362C36243620363BD
:102FB000038143817047000038B50D46044600B1D7
:102FC00011B90C4800F062FD202383F3118800F052
:102FD0000BFB656000252046E56025616561A56104
:102FE00001F03AF80223237000F00EFB85F31188FC
:102FF00038BD00BFF855000838B5044610B90D4873
:1030000000F044FD202383F3118800F0EDFA204600
:1030100001F088F80025012365602370E5602561D3
:103020006561A56100F084FC00F0EEFA85F311887B
:1030300038BD00BF0156000870B505460E4614465F
:1030400000F048FB05B114B90B4800F01FFD6069A2
:1030500005EB8603DC6018B11022002102F009F8AC
:10306000A06918B11022002102F003F83146284669
:10307000BDE8704001F0DCB80956000810B5044600
:1030800000F028FB14B90A4800F000FD238920460F
:1030900003F001032381638903F0010363810023AB
:1030A00023616361A361BDE8104001F04FB900BF27
:1030B0001A560008F8B504460D4617461E4600F09D
:1030C00009FB0CB1032D02D90A4800F0DFFC0123F3
:1030D0006289AB4013430022638104EB8503DB6804
:1030E00029469B6920469F601E605A60BDE8F840F3
:1030F00001F054B92F560008F8B504460D4617469E
:103100001E4600F0E7FA0CB1032D02D90A4800F080
:10311000BDFC01232289AB4013430022238104EB31
:103120008503DB6829465B6920469F601E605A6004
:10313000BDE8F84001F0BEB94056000870B5022362
:10314000002504460370A0F84C5080F84E5080F8DB
:103150004F5005814581C56005614561856180F8F5
:10316000345001F001F863681B6823B129462046FA
:10317000BDE87040184770BD0278436880F8502061
:1031800005221B6802700BB1042118477047436881
:1031900090F850201B6802700BB10521184770474A
:1031A00090F8343070B5044613B1002380F8343001
:1031B00004F14402204601F0E8F863689B6863BBB1
:1031C00094F8445015F0600615D194F8453005F098
:1031D0007F0545EA032540F202339D4200F00B8152
:1031E00059D8022D00F0D9803DD8002D00F08580FF
:1031F000012D00F0CC800021204601F02BFB0021A6
:10320000204601F01DFB63681B6813B106212046B0
:103210009847062384F8343070BD2046984700282C
:10322000CED094F84B2094F84A3043EA0223E26B64
:10323000934238BFE36394F94430E56B002B80F28E
:10324000FA80002D00F0EB80092384F83430FFF77A
:1032500097FEE36BA26B00212046FFF74DFFBDE810
:103260007040FFF792BEB5F5817F00F0B080B5F5F4
:10327000407F49D0B5F5807FBDD194F84630012B11
:10328000B9D1B4F84C3023F00203A4F84C30A66353
:10329000E6632664C5E740F201639D421ED8B5F59A
:1032A000C06F3BD2B5F5A06FA5D1B4F84430B3F5EB
:1032B000A06F0ED194F84630204684F84E3000F0CE
:1032C000ABFF63681B6813B10121204698470323B5
:1032D00023700023A363E3632364A2E7B5F5106FB3
:1032E00032D040F602439D4251D0B5F5006F82D1F5
:1032F00004F14F03A363012324E004F14C03A3630F
:1033000002232564E3638CE794F84630012B7FF4B5
:1033100072AFB4F84C3043F00203B6E794F849209A
:10332000616894F848304D6843EA022394F84710E6
:1033300094F846202046A84700283FF45CAF436835
:10334000A3630368E363A4E72378042B0FD1FFF79B
:1033500017FE2046FFF792FEFFF717FE0321636872
:1033600084F84F601B6821700BB12046984794F891
:103370004630002BADD084F84F30042323706368AF
:103380001B68002BA5D0022120469847A1E7324BAD
:10339000A3630223E36300239EE794F848102046CA
:1033A00011F0800F01F00F010ED000F0E1FF0128B5
:1033B00006D002287FF41FAF284BE063A36368E7C1
:1033C000274BE563A36364E700F0C5FFEFE794F8DC
:1033D0004630002B7FF40FAF94F8483013F00F0104
:1033E0003FF477AF1A06204602D501F047FA70E79E
:1033F00001F03AFA6DE794F84630002B7FF4FBAE0B
:1034000094F8483013F00F013FF463AF1B062046D9
:1034100002D501F01FFA5CE701F012FA59E7142314
:1034200084F83430FFF7ACFD2B462A4600212046B5
:10343000FFF740FE13E73DB1152384F83430FFF762
:103440009FFDE36BA26BF1E70B2384F83430FFF7A9
:1034500097FD2B462A46FEE65656000852560008AF
:103460005456000838B590F834300446152B29D846
:10347000DFE803F03D28282828283D28280B293894
:1034800028282828282828283D3D90F84B1090F817
:103490004A20C36B42EA01229A4214D9C268128AB6
:1034A000B3FBF2F502FB15356DB9FFF769FD2B464D
:1034B0002A4629462046FFF71FFEFFF766FD0A232E
:1034C00084F8343038BD142384F83430FFF758FDC5
:1034D000002320461A461946FFF7ECFDBDE83840A8
:1034E000FFF753BD036C03B198470023E8E70021C1
:1034F00001F0B0F90021204601F0A2F963681B68D1
:1035000013B10621204698470623D9E738B590F82D
:1035100034300446152B23D801229A4040F64163EB
:103520001A421ED112F4801510D1930218D50B2324
:1035300080F83430FFF724FD2B462A4629462046E2
:10354000FFF7DAFDBDE83840FFF71FBDC3689B6990
:103550005B682BB9036C03B19847002384F83430BF
:1035600038BD002101F076F90021204601F068F90C
:1035700063681B6813B10621204698470623EDE7D0
:1035800000F16043090103F56143C9B283F80013F8
:10359000012300F01F024009800000F160409340C9
:1035A00000F56140C0F8803103607047012100F0F0
:1035B0001F0399404209044B203243F82210002295
:1035C000034483F80023704700E100E0044B9A6A4B
:1035D0000AB9DB6A13B1034800F058BA704700BF5C
:1035E000B83400205856000810B5054CA36A0BB932
:1035F000E36A13B1034800F049FA0123E36210BD06
:10360000B83400206756000810B5064CA36A13B9F9
:10361000E36A002B02DC044800F038FA0023E3627E
:1036200010BD00BFB83400207156000810B5064C1C
:10363000A36A002B01DDE36A13B1044800F026FA07
:103640000123E36210BD00BFB83400206C560008AF
:1036500010B5064CA36A002B02DDE36A002B02DCE6
:10366000034800F013FA0023E36210BDB8340020D1
:103670007656000810B5202383F31188074CA36AFF
:10368000002B01DBE36A13B1054800F0FFF9A36AE0
:103690000133A362002383F3118810BDB8340020E6
:1036A0005D56000810B5202383F31188074CA36AE8
:1036B000002B01DDE36A13B1054800F0E7F9A36AC6
:1036C000013BA362002383F3118810BDB8340020AE
:1036D00062560008054B9A6A002A02DBDB6A002B5F
:1036E00002DC034800F0D2B9704700BFB8340020B4
:1036F0007B560008044B9A6A12B9DB6A002B02DC85
:10370000024800F0C3B97047B83400208156000861
:103710000022024B1B605B609A607047B834002047
:1037200010B50446FFF7D6FF14B9094800F0AEF90A
:103730000023A2682375074B1B6899689142FBD24E
:103740005A6823606260204614605C6010BD00BF50
:1037500087560008B834002038B50446202383F388
:103760001188FFF763FF237D0025052B0BD8DFE8C9
:1037700003F0030A0A081C16FFF76AFF85F3118895
:1037800038BDA3691D604FF0FF332046A361FFF7EA
:10379000C7FFFFF75DFF002383F3118838BDA569DC
:1037A000FFF798FFAB680133AB6094E80C001A6038
:1037B00022685360E7E7000010B50446FFF78AFF70
:1037C00014B9094800F062F90023A2682375074B79
:1037D0001B6899689142FBD85A6823606260204652
:1037E00014605C6010BD00BF93560008B834002020
:1037F00070B506460D4C2569FFF77CFF23682E75D2
:103800001A6854602260012223611A75EFF309835C
:103810002A69243B9A4202D9054800F037F9294623
:103820002069BDE87040FCF7F7BC00BFB834002049
:10383000A456000870B50E4686B00546FFF75AFF3D
:10384000731C0D4C13D023690C4A314601A800F0BB
:103850007BFA2846FFF7CCFFFFF73CFF049B13B130
:1038600001A800F0BDFA2369986906B070BD28462A
:10387000FFF7BEFFF7E700BFB83400205937000854
:10388000F8B504460F46124E3569FFF733FFA761BE
:10389000A268AB689A4204D82046BDE8F840FFF71A
:1038A0003FBF2846FFF788FF012305463461237593
:1038B000EFF309830269243B9A4202D9054800F0DC
:1038C000E5F829462046BDE8F840FCF7A5BC00BF56
:1038D000B8340020A4560008044B1A681B6990688D
:1038E0009B68984294BF002001207047B8340020A4
:1038F00038B50D4C236820691A6854602260012293
:103900001A752361FFF758FF0546EFF30983026933
:10391000243B9A4202D9054800F0B8F829462069AC
:10392000BDE83840FCF778BCB8340020A456000845
:1039300008B5FFF7DFFEFFF7CDFE064B1A681B69DF
:1039400092689B689A4203D9BDE80840FFF7D0BF50
:1039500008BD00BFB834002038B50D46044608B194
:10396000002902DA034800F091F824606460A56041
:1039700038BD00BFB356000838B504460D46FFF702
:10398000B9FE14B90E4800F081F8A3685A1E002A47
:10399000A26012DA1DB9A3604FF0FF3038BD094BA9
:1039A00029461B6905209C6162681C605A6013608F
:1039B0006360BDE83840FFF73DBF002038BD00BF61
:1039C000C3560008B834002010B50446FFF782FE45
:1039D00014B9094800F05AF8A3680133002BA3601A
:1039E00009DC2068036823605C6000238361BDE814
:1039F0001040FFF795BE10BDD5560008FEE7000049
:103A000038B50025194CFFF783FE00F08FF98022AE
:103A1000174904F13000A562E56200F0ADF8154BDE
:103A20002061036101230375134B144AD96821F403
:103A3000E0610904090C0A431149DA60CA6842F0DE
:103A40008072CA600F490A6842F001020A601022BF
:103A5000DA77202283F82220FFF7B8FD85F311885A
:103A600062B6BDE83840084800F0C8B8B834002055
:103A7000E25600080004002000ED00E00003FA0513
:103A8000F0ED00E0001000E0E856000872B6014BCF
:103A90005862FEE7B83400202DE9F84F4FF00008D7
:103AA000214CFFF717FEDFF88490FFF713FE6569DE
:103AB00004F11407D9F82430266AAA689E1B96429E
:103AC00020D34FF0200AAA68236AD5F80CB013441B
:103AD00023622B68B61ABB425F606361C5F80C8035
:103AE00001D1FFF7F1F9FFF7B3FD88F311882869D9
:103AF000D8478AF31188FFF799FD6569AB689E4244
:103B0000E1D2D7E76269BA420CD0916823628E1B7A
:103B10009660A86802282CBF1818981CBDE8F84FBA
:103B2000FFF7D8B9BDE8F88FB8340020000C00408A
:103B3000034B59685A68521A9042FBD8704700BF2D
:103B4000001000E0202383F31188FFF74DBD08B576
:103B5000FFF75AFD002383F3118808BD10B5044612
:103B600010B90448FFF792FF2146BDE81040082035
:103B7000FFF760BE0557000882600222027500222E
:103B80004275704710B50446FFF7A4FD14B91948F3
:103B9000FFF77CFF6268500707D1A368590704D17B
:103BA0009A4202D29B1A9F2B02D81248FFF76EFF4F
:103BB000E368FF2B01D8236913B90E48FFF766FFAE
:103BC000A068636840F8103CA0F1440340F8143C3E
:103BD0002369203840F8243C636940F8203C064BB8
:103BE00040F8043CE36883600223037500234375B7
:103BF00010BD00BF115700082902000810B555215B
:103C00000446826843689A420CD8FFF79BFF20461F
:103C1000FFF7B8FF04460021FFF732FEFFF797FFDA
:103C2000204610BD03F8011BEDE70000F8B50C4677
:103C300016461F46054640B1420706D19F2904D9C2
:103C40004B0702D1FF2E00D817B91348FFF71EFF0C
:103C50002B4655212A199A421BD8203C2C44FFF7A9
:103C600071FFA4F12403E360069B002144F8203C8B
:103C70000A4B204644F8043C0223617523752561F4
:103C800044F8247CA660FFF7FBFDFFF760FF2046A9
:103C9000F8BD03F8011BDEE72757000829020008DA
:103CA000024B1B6998610F20FFF7A2BDB8340020BA
:103CB00010B50446FFF746FF2046BDE81040FFF769
:103CC000EFBF10B50446FFF73DFF2046FFF746FF64
:103CD000BDE81040FFF73BBF49B1064B42681B6986
:103CE00018605A60136043600420FFF7A3BD4FF0D3
:103CF000FF307047B83400200368984206D01A6835
:103D00000260506099611846FFF70ABD704738B5E8
:103D100004460D462068844200D138BD0368236004
:103D20005C608561FFF7FCFCF4E70000054B03F1E4
:103D300014025A619A614FF0FF32DA6100221A626E
:103D4000704700BFB8340020F8B506460C4615464B
:103D50001F46FFF7BFFC0EB105B114B91D48FFF7B0
:103D600095FE1D4BF560586A1C4B022C1A4652F802
:103D7000145F214638BF0221954237611F460AD1A0
:103D800018625E619E61084435607560B160BDE88F
:103D9000F840FFF78FB81B6AAA68C41A0C1902D33F
:103DA000A41A2D6804E0944202D21819FFF792F881
:103DB000AB689C420CD86B68356073601E604FF036
:103DC000FF336E60B460A868001BA860FB61F8BD9B
:103DD000E41AE6E739570008000C0040B834002028
:103DE00010B50446FFF776FC14B91A48FFF74EFEEB
:103DF00019490B4653F8142F944222680CD061687D
:103E00000A602268516000219A42E16021D09368E3
:103E1000A1680B44936010BD00209A424A61536030
:103E2000E06003D1BDE81040FFF74EB89368A0688A
:103E300003449360094A086A526A121A934208D9E5
:103E4000BDE81040991A012998BF931C1844FFF748
:103E500041B810BD44570008B8340020000C0040A1
:103E6000EFF30983203383F30988002383F3118858
:103E70007047000010B5202383F311880D4B5B6859
:103E800013F4006312D0EFF309844FF0807344F809
:103E9000043CA4F1200383F30988FFF71DFD18B14A
:103EA000054B44F8083C10BD044BFAE783F3118836
:103EB00010BD00BF00ED00E03D0200084802000810
:103EC00070477047FEE7000070B500240B4B03F10C
:103ED000800093E826000439AA4206D3D9688A42B2
:103EE00008D310338342F4D370BD51F8046F42F805
:103EF000046BF1E742F8044BF1E700BF54570008A8
:103F0000164B4FF0FF301A6900216FEAC2526FEA78
:103F1000D2521A611A69C2F308021A611A695A69FF
:103F200058615A6959615A691A6A62F080521A6274
:103F30001A6A02F080521A621A6A5A6A58625A6AF7
:103F400059625A6A1A6C42F080521A641A6E42F030
:103F500080521A661B6E00F033BE00BF003802406C
:103F6000002230B5836D446D11464FF0FF309D68DF
:103F700004EB421301329542C3F80019C3F810193B
:103F8000C3F80809C3F8001BC3F8101BC3F8080BDB
:103F9000EED24FF00113C4F81C3830BD890141F056
:103FA0002001016103699B06FCD41220FFF7C0BD0C
:103FB000204B2DE9F04703EB8002D2F80CE05D6D59
:103FC000DEF81420461CD2F800C005EB063605EBDF
:103FD0004018516861450BD30123D5F8342803FA02
:103FE00000F022EA0000C5F834081846BDE8F08762
:103FF000BEF81040ACEB0103A34228BF2346D8F81B
:104000001849A4B2B3EB840F10D81F469468A4F1EA
:10401000040959F804AF042FC6F800A001D9043FE1
:10402000F7E71C440B4494605360D2E70020BDE8DE
:10403000F08700BFB835002010B5054C2046FEF7CC
:10404000ADFF4FF0A0436365024BA36510BD00BFF9
:10405000B8350020F8570008037870B5012B0546E5
:1040600050D12A4B446D98421BD1294B0E215A6BDB
:10407000432042F080025A635A6D42F080025A6532
:104080005A6D5A6942F080025A615A6922F08002E0
:104090005A615B69FFF774FA1E4BE3601E4BC4F86C
:1040A00000380023C4F8003EC02323604FF43413CB
:1040B0006E6DA3633369002BFCDA01230C2033619E
:1040C000FFF736FD3369DB07FCD41220FFF730FD24
:1040D0003369002BFCDA00262846A660FFF740FF74
:1040E0006B68C4F81068DB68C4F81468C4F81C680E
:1040F0004BB90A4BA3614FF0FF336361A36843F0F0
:104100000103A36070BD064BF4E700BFB835002083
:10411000003802404014004003002002003C30C040
:10412000083C30C038B503780446012B17D0456DE4
:10413000FFF716FF0023C5F81C38AB60AB63084BD4
:104140009C420CD14320FFF731FA064B5A6B22F008
:1041500080025A635A6D22F080025A655B6D38BD49
:10416000B835002000380240F8B5446D05460021FE
:104170002046FFF713FF00234FF001124FF00066B7
:104180004FF0FF30A96DC4F834388F68C4F81C288C
:1041900004EB431201339F42C2F80069C2F8006B7E
:1041A000C2F80809C2F8080BF2D20B686A6DEB6519
:1041B000636210231361166916F01006FBD11220FA
:1041C000FFF7B6FCD4F8003823F4FE63C4F80038D7
:1041D000A36943F4402343F01003A3610923C4F807
:1041E0001038C4F814380A4BEB604FF0C043C4F8E1
:1041F000103B084BC4F8003BC4F81069C4F8003900
:10420000EB6D03F1100243F48013EA65A362F8BD7D
:10421000D457000840800010426D90F84E10D2F83C
:10422000003823F4FE6343EA0113C2F800387047F4
:104230002DE9F04100EB81080D46D8F80C100F680D
:1042400007F00303022B4FD0032B4FD03A4A3B4FCA
:10425000012B18BF17460023446D6E018A6904EBD9
:10426000060ECEF8103B05F1100C002A40D04A8A09
:1042700005F158033A435B01E2500123D4F81C28AE
:1042800003FA0CF31343C4F81C3800234A6926448C
:10429000C6F8103905F13F03002A37D00A8A898B06
:1042A0009208012988BF4A43C16D04EB8303561865
:1042B00041EA0242C66529465A602046FFF76EFE73
:1042C000D8F80C301B8A43EA85531F4305F1480395
:1042D0005B01E7500123D4F81C2803FA05F51543C8
:1042E000C4F81C58BDE8F081154FB4E7154FB2E78C
:1042F0000123DEF8002B03FA0CF322F40042CEF87F
:10430000002BD4F81C2822EA0303BCE70E4A04EB76
:1043100083035A6029462046FFF740FE0122D6F863
:10432000003902FA05F523F40043C6F80039D4F841
:104330001C3823EA0505D3E7008000100080041034
:104340000080081000800C1000040002826D1268CA
:10435000C265FFF705BE436D583149015B5813F440
:10436000004004D013F4001F14BF01200220704746
:10437000436D483149015B5813F4004004D013F4F5
:10438000001F14BF01200220704700EB8101CB68A1
:10439000196A0B6813604B685360704700EB810328
:1043A00010B5DC68A2691368D36019B9402B84BFCB
:1043B00040231360638A1268406D1A44013AB2FBCD
:1043C000F3F25343033323F0030343EAC2434901A7
:1043D00043F0C0434218C2F8103B236803F00303C4
:1043E000012B0CD1D0F8083813F4807FD2F8003BB1
:1043F00014BF43F0805343F00053C2F8003B08441D
:10440000D0F8003B43F00443C0F8003B10BD00006F
:104410002DE9F041264D04466E6D06EB4013D3F8AE
:10442000087B3807C3F8087B0AD5D6F81438190773
:1044300006D505EB8403DB6821465B682846984770
:10444000FA0733D5D6F81438DB072FD505EB8403EC
:10445000D968ECB98B69488A5E68B6FBF0F200FB5C
:104460001262AAB91868DA68904211D2121A83E867
:104470001400202383F31188FFF7D8F821460C4855
:10448000FFF78CFFFFF7E4F884F31188BDE8F081B3
:10449000012303FA04F26B8923EA02036B81CB68E0
:1044A00023B12146BDE8F04101481847BDE8F0813D
:1044B000B835002000EB810370B5DD684A016C69F6
:1044C000436D2668E6603EBB4FF400249818C0F8A0
:1044D0001049286800F0030001280DD1D3F808081E
:1044E0009C1810F4807FD4F8000914BF40F080506D
:1044F00040F00050C4F800091A44D2F8000940F016
:104500000440C2F800090122D3F8340802FA01F18C
:104510000143C3F8341870BD19B9402E84BF402040
:1045200020602E8A20688419013CB4FBF6F440F028
:10453000005040EAC4409C18C4F81009C9E70000C4
:104540002DE9F041234D04466E6D06EB4013D3F880
:104550000879F907C3F808791ED5D6F81038DA07B4
:104560001AD505EB8003D9684B691868DA68904260
:104570001FD24FF00008121A1A60C3F804802023DB
:1045800083F31188FFF752F821462846FFF792FF80
:10459000FFF75EF888F311883B0618D50123D6F89B
:1045A0003428A340134212D02046BDE8F041FFF763
:1045B000FFBC012303FA04F22B8923EA02032B81B7
:1045C0008B68002BE8D0214628469847E4E7BDE8F1
:1045D000F08100BFB83500202DE9F84FFFF74AF809
:1045E0009648456D04466E69AB691E4016F4805FBF
:1045F0006E6107D0FEF7A2FDFFF754F8BDE8F84F53
:10460000FFF738BC002E12DAD5F8003E8B489B0726
:104610001EBFD5F8003E23F00303C5F8003ED5F8D1
:10462000043823F00103C5F80438FEF7B0FD370560
:1046300002D58248FEF7A0FDB0040CD5D5F80838A5
:1046400013F0060FEB6823F470530CBF43F41053C0
:1046500043F4A053EB60310704D56368DB680BB10A
:1046600076489847F2025AD4B3020CD500274FF08F
:104670000109D4F85480DFF8C4A1A36DF9B29B6896
:104680008B4280F08780F70619D5616D0A6AC2F304
:104690000A1702F00F0302F4F012B2F5802F00F0B7
:1046A000A180B2F5402F0AD104EB8303DB6801F54A
:1046B0008051186A00231A469F4240F087803003D9
:1046C000D5F8184813D5E10302D50020FFF7A0FE66
:1046D000A20302D50120FFF79BFE630302D502204F
:1046E000FFF796FE270302D50320FFF791FE75031F
:1046F00082D5E00702D50020FFF722FFA10702D5EF
:104700000120FFF71DFF620702D50220FFF718FF07
:1047100023077FF571AF0320FFF712FF6CE7002737
:104720004FF00109D4F85480DFF810A1A36D5FFAAF
:1047300087FB9B685B4597D308EB4B13D3F80029A5
:1047400002F44022B2F5802F22D1D3F80029002AAA
:104750001EDAD3F8002942F09042C3F80029D3F8BA
:104760000029002AFBDB5946606DFFF717FC228900
:1047700009FA0BF322EA0303238104EB8B03DB68C2
:104780009B6813B15946504698475846FFF710FCAE
:104790000137CBE708EB4112D2F8003B03F440238A
:1047A000B3F5802F10D1D2F8003B002B0CDA6289D0
:1047B00009FA01F322EA0303638104EB8103DB6856
:1047C000DB680BB150469847013756E79C0708BF96
:1047D0000A68072B98BF027003F101039CBF120AFD
:1047E000013069E7023304EB8302526801F580511E
:1047F00090690268D0F808C04068A2EB000E002261
:10480000104697420AD104EB830463689B699A6857
:104810003A449A605A6817445F6050E712F0030FF9
:1048200008BF0868964588BF8CF8000002F10102B5
:1048300084BF000A0CF1010CE3E700BFB83500208B
:10484000436D03EB4111D1F8003B43F40013C1F871
:10485000003B7047436D03EB4111D1F8003943F43D
:104860000013C1F800397047436D03EB4111D1F8D3
:10487000003B23F40013C1F8003B7047436D03EB8A
:104880004111D1F8003923F40013C1F80039704701
:1048900008B5FEF7EFFE084B084A196801F03D0124
:1048A000996053680BB190689847FEF7FBFEBDE82E
:1048B0000840FFF7DFBA00BF00600240C02D0020B3
:1048C00008B5FEF7D7FE094B1968890901F03D01CB
:1048D0008A019A60064AD3680BB110699847FEF7BF
:1048E000E1FEBDE80840FFF7C5BA00BF0060024026
:1048F000C02D002008B5FEF7BDFE094B1968090C54
:1049000001F03D010A049A60064A53690BB19069AF
:104910009847FEF7C7FEBDE80840FFF7ABBA00BFF7
:1049200000600240C02D002008B5FEF7A3FE094B31
:104930001968890D01F03D018A059A60064AD3691C
:104940000BB1106A9847FEF7ADFEBDE80840FFF7CF
:1049500091BA00BF00600240C02D002008B5FEF7EC
:1049600089FE084B084A596801F03D01D960536A35
:104970000BB1906A9847FEF795FEBDE80840FFF737
:1049800079BA00BF00600240C02D002008B5FEF7D4
:1049900071FE094B5968890901F03D018A01DA600D
:1049A000064AD36A0BB1106B9847FEF77BFEBDE851
:1049B0000840FFF75FBA00BF00600240C02D002032
:1049C00008B5FEF757FE094B5968090C01F03D0187
:1049D0000A04DA60064A536B0BB1906B9847FEF7F6
:1049E00061FEBDE80840FFF745BA00BF0060024025
:1049F000C02D002008B5FEF73DFE094B5968890D12
:104A000001F03D018A05DA60064AD36B0BB1106CE8
:104A10009847FEF747FEBDE80840FFF72BBA00BFF6
:104A200000600240C02D002008B5FEF723FE084BB1
:104A3000084A196801F03D019960536C0BB1906C04
:104A40009847FEF72FFEBDE80840FFF713BA00BFF6
:104A500000640240C02D002008B5FEF70BFE094B94
:104A60001968890901F03D018A019A60064AD36CF0
:104A70000BB1106D9847FEF715FEBDE80840FFF733
:104A8000F9B900BF00640240C02D002008B5FEF750
:104A9000F1FD094B1968090C01F03D010A049A6007
:104AA000064A536D0BB1906D9847FEF7FBFDBDE8CC
:104AB0000840FFF7DFB900BF00640240C02D0020AE
:104AC00008B5FEF7D7FD094B1968890D01F03D01C6
:104AD0008A059A60064AD36D0BB1106E9847FEF7AF
:104AE000E1FDBDE80840FFF7C5B900BF0064024022
:104AF000C02D002008B5FEF7BDFD084B084A5968D7
:104B000001F03D01D960536E0BB1906E9847FEF7EE
:104B1000C9FDBDE80840FFF7ADB900BF0064024021
:104B2000C02D002008B5FEF7A5FD094B596889097D
:104B300001F03D018A01DA60064AD36E0BB1106FB5
:104B40009847FEF7AFFDBDE80840FFF793B900BFF7
:104B500000640240C02D002008B5FEF78BFD094B14
:104B60005968090C01F03D010A04DA60064A536FE6
:104B70000BB1906F9847FEF795FDBDE80840FFF731
:104B800079B900BF00640240C02D002008B5FEF7CF
:104B900071FD094B5968890D01F03D018A05DA6004
:104BA000064AD36F13B1D2F880009847FEF77AFD1A
:104BB000BDE80840FFF75EB900640240C02D002048
:104BC000002330B519460C250B4A0C4C136005FB2D
:104BD00003F00059016002EBC3000133102B416068
:104BE000F5D14FF0FF33064A9360D360C2F8083422
:104BF000C2F80C3430BD00BFC02D0020145800088E
:104C0000006002402DE9F84304460F46904699465D
:104C1000FEF760FD0F2C09D801252849A5400A6838
:104C2000154207D000263046BDE8F8832448FEF739
:104C30002DFFF7E70C26234801EBC40E2A4315F09D
:104C4000FF0F06FB0406CEF80480CEF808900A6039
:104C500009D01D4B1A6B42F400121A631A6D42F40C
:104C600000121A651B6D15F47F4F09D0164B1A6B95
:104C700042F480021A631A6D42F480021A651B6DB9
:104C80000C236343C3581A6822F01F021A601D6880
:104C900015F00105FBD10C2202FB04043D22607AD1
:104CA000616882400A6021221D605A61B8F1000FDC
:104CB000B9D03946E07AFEF763FCB4E7C02D002096
:104CC000045800081458000800380240F8B51F4680
:104CD00004460D461646202383F31188FEF784FC14
:104CE0003B46324629462046FFF78CFF0446FEF736
:104CF0008BFC002383F311882046F8BD022906D0DF
:104D0000032906D00129064818BF0020704705482E
:104D10007047032A9ABF044800EBC2000020704786
:104D2000585900080C5900087459000870470000D1
:104D3000054808B5036842F206725B69984700307F
:104D400018BF012008BD00BF442E002008B5202355
:104D500083F31188FEF748FC064B1868037D032B8C
:104D600001D1FEF7DDFCFEF74FFC002383F3118831
:104D700008BD00BFA8340020A0F10400FFF7E6BF83
:104D800008B5202383F31188FEF750FC0448FEF792
:104D90000BF8FEF75DFC002383F3118808BD00BF0C
:104DA000442E0020044BD3F894341B681878031F5A
:104DB00058425841704700BF442E0020324A13B574
:104DC000136B324C43F001031363314B196821F428
:104DD00040011960196841F400011960596821F413
:104DE00000615960D96821F44001D960D968D9605F
:104DF000996821F440019960996841F440019960F3
:104E0000596A21F470415962596A41F4204159624A
:104E1000116B41F0010111631A6822F040721A60AF
:104E20001A6842F000721A605A6822F480525A607E
:104E3000DA6822F04072DA60DA68DA609A6822F0A2
:104E400040729A609A6842F040729A605A6A22F4FC
:104E500070225A625A6A42F420225A62FEF79CF883
:104E60002046FDF715FF20460A49FDF73DFF0023C8
:104E7000802200934FF49071074B0848FEF7D6FE4E
:104E8000074B186002B010BD00380240442E0020CD
:104E900000000240A4590008F54E000878330020B5
:104EA000A834002010B50A4C41F2B030626D936B0B
:104EB00023F400239363FEF704FF06492046FEF720
:104EC0007BF8626D936B43F40023936310BD00BFC6
:104ED000B83500209459000810B5054C2046FEF75F
:104EE0008BF8626D936B23F40023936310BD00BFB6
:104EF000B83500202DE9F3412B4C2C4D2C4E2A487F
:104F0000FFF750FF00284AD02B6828481B699847B4
:104F10000028F4DD94F87030C0B243B100230828B3
:104F200084F87030E366EAD00D280AD1E7E7082854
:104F300005D1E36E002BE2D0013BE366DFE70D28ED
:104F400001D00A2823D1E36E002BD8D000272344B8
:104F50001F723146174800F003F94FF001086067EF
:104F600084F87080202383F31188FEF73DFB124BF9
:104F70006946124800938DF80580FCF755FF032021
:104F8000FEF736FCFEF740FB87F31188B7E7E36EC8
:104F9000612BB4D85A1C2344E2661872AFE741F281
:104FA0001850FEF78EFEAAE7DC320020442E0020C7
:104FB0005B540008E4320020E0320020680B00203F
:104FC000012937B505460C4608D003D3022907D07E
:104FD00003B030BD1248FCF7DBFAF9E71148FAE7F5
:104FE000202383F31188FEF721FB28460E4A012176
:104FF000FEF722F80D4A21462846FEF71DF80C4818
:10500000FDF798FE052369460A488DF80530FCF740
:105010000BFFFEF71DFB002383F31188D8E700BFC9
:10502000F4590008FC590008AC590008D059000890
:10503000442E0020680B00200022064BDA6683F81D
:1050400070205A679A67044A02F1080120321960F9
:105050005A607047DC320020085A000810B5431E21
:105060000A44914200D110BD11F8014B03F8014FE1
:10507000F7E703460244934200D1704703F8011B4F
:10508000F9E7000070B5CD1C25F0030508350C2D9F
:1050900038BF0C25002D064601DBA94203D90C239D
:1050A0003360002070BD00F063F9234A1468214684
:1050B00091B9224C23681BB9304600F041F82060BA
:1050C0002946304600F03CF8431C26D10C233046DC
:1050D000336000F04EF9E4E70B685B1B1AD40B2B2E
:1050E0000FD90B60CC18CD50304600F042F904F1D6
:1050F0000B00231D20F00700C31A1BD05A42E250B8
:1051000070BD8C420BBF63684B681360636018BF4F
:105110000C46E9E70C464968CAE7C41C24F00304BE
:10512000A04205D0211A304600F00AF80130CDD057
:105130002560D9E770BD00BFAC340020B03400203A
:1051400038B50023054C05460846236000F020F9D9
:10515000431C02D1236803B12B6038BD18360020F0
:10516000134B2DE9F0411D680646AC6D0F46B4B9EE
:10517000502000F0E3F8A865046044608460C460D7
:105180000461446184618462C4620463446384632F
:10519000C463046444648464C46404774462AA6D90
:1051A00039463046BDE8F041012300F003B800BFA6
:1051B00008080020F0B518B9106808B9F0BD2046FD
:1051C00004460F4614F8015B17F8016B1EB965B968
:1051D00015602846F0BDB542F6D1002BEFD1146022
:1051E0000370F0BD1C460CE015B90E4614F8013BE7
:1051F00016F8015BAB42F7D1002BF3D0002304F883
:10520000013C1460F0BD2DE9F84F80468946924676
:105210001F468B465D460A9815F8014B00F08AF848
:105220002044467816F008060BD12D2C0BD1012610
:105230002C780BF1020567B1102F14D1302C0AD055
:1052400011E0AB46E6E72B2C04BF2C780BF10205EE
:10525000F1E7302C27D12B7803F0DF03582B4BD10B
:1052600010276C780235002E0CBF6FF000414FF014
:1052700000410022B1FBF7FE104607FB1E1CA4F103
:105280003003092B11D81C46A7421DDD531C07D043
:10529000864516D301D1A44513DB012200FB07404C
:1052A00015F8014BEBE70A27DDE7A4F14103192BC1
:1052B00001D8373CE8E7A4F16103192B04D8573C27
:1052C000E2E74FF0FF32EBE7531C08D122230846F8
:1052D000C8F80030BAF1000F07D1BDE8F88F06B169
:1052E0004042BAF1000F0CD022B1013DCAF8005083
:1052F000BDE8F88F4D46F9E73024002FB3D10827D9
:10530000B1E7BDE8F88F0000084B37B51C68084DC1
:10531000236A002B08BF2B46009313460A4601461A
:105320002046FFF770FF03B030BD00BF0808002023
:105330006C080020D0F8EC0070470000024B0146DA
:105340001868FFF79FBE00BF0808002082B001B9AF
:1053500001A942B14BB113780B601278101C18BF31
:10536000012002B070471046FBE76FF00100F8E73C
:105370007047704749B1FF2A8BBF8A230A700360C8
:10538000012088BF4FF0FF3070470846704700008B
:10539000044B0246196809B90349196018680244A8
:0C53A0001A607047B43400201C36002056
:0453AC00F8B500BF91
:0453B000F8B500BF8D
:1053B40000000000000000000102030406070809C1
:1053C4000D486172644661756C740D00556E6861B8
:1053D4006E646C65642025530D0041484246726535
:1053E400713D25754D487A3B2041504231467265E6
:1053F400713D25754D487A3B2041504232467265D5
:10540400713D25754D487A0D000000000000000034
:1054140000000000D50A0008566563746F723538C1
:1054240000566563746F72354300566563746F721A
:10543400363000566563746F723634005665637493
:105444006F72363800566563746F7239430056655F
:1054540063746F72453000202C00000000000000CF
:1054640000000000D115000855180008F1170008C5
:105474000D180008F5150008631B000870DFFFFF16
:1054840000000000F5170008111800086CDFFFFF8A
:1054940000000000671B000815160008000000004B
:1054A40000000000451F0008451C00081F1C0008E0
:1054B4000000000001000000010000006300000083
:1054C40000000000000000000300000000000000D5
:1054D40041636B2025640D0A003230313930393094
:1054E400365F3133303200546F665374616E64003A
:1054F4000D25532025530D0A0050696E670056652B
:105504007273696F6E00446F776E00557000537448
:105514006F70004765743800257520203078255851
:105524000D004765743136004765743332005365A6
:1055340074380053657431360052656164790D0A1C
:10554400006962714F626A656374496E69740069C7
:105554006271506F737446756C6C427566666572E1
:1055640049006962715265616454696D656F75744F
:10557400006F62714F626A656374496E6974006F8B
:105584006271506F737446756C6C427566666572B1
:1055940053006F6271577269746554696D656F75F4
:1055A40074006F73616C4576656E7442726F6164EA
:1055B40063617374466C61677349005F63746C0064
:1055C400736475537461727400000000000000007D
:1055D400EF2B0008DF2B00080F2C0008FF2B00081E
:1055E400092C0008F92B0008E92B0008D92B000826
:1055F400692C000875736253746172740075736268
:1056040053746F7000757362496E6974456E64708B
:105614006F696E74490075736244697361626C6585
:10562400456E64706F696E74734900757362537468
:105634006172745265636569766549007573625376
:10564400746172745472616E736D69744900000000
:105654000100000053562333005356233800535699
:10566400233900535623340053562336005356230C
:1056740035005356233700535623313000535623F5
:10568400313100636853636852656164794900632A
:10569400685363685265616479416865616449006F
:1056A400737461636B206F766572666C6F770063E9
:1056B4006853656D4F626A656374496E697400630B
:1056C4006853656D5761697454696D656F7574537A
:1056D40000636853656D5369676E616C49006D6161
:1056E400696E00000057000808350020B835002016
:1056F40001000000FD3900080000000069646C65C9
:10570400006368546864536C65657053006368543F
:10571400686443726561746553757370656E64651E
:1057240064490063685468644372656174655374C2
:10573400617469630063685654446F536574490027
:1057440063685654446F52657365744900000000E1
:105754007C5D00081C3600201C3600201C3600200E
:105764007C5D0008000000200000002000000020F4
:105774007C5D000800C0012000C0012000C00120A1
:105784007C5D000800000000000000000000000034
:105794007C5D0008000000100000001000000010F4
:1057A4007C5D00080040024000400240004002408E
:1057B4007C5D000800000000000000000000000004
:1057C4007C5D0008000000000000000000000000F4
:1057D40000000000A1310008653400080D35000800
:1057E40040004000A82D0020A82D0020010000004A
:1057F400B82D0020800000004001000003000000DC
:10580400646D6153747265616D416C6C6F634900C2
:1058140010600240086002400000000B2860024053
:10582400086002400006010C40600240086002402B
:105834000010020D58600240086002400016030E7A
:10584400706002400C6002400000040F8860024057
:105854000C60024000060510A06002400C6002408B
:1058640000100611B86002400C6002400016072FB9
:1058740010640240086402400000083828640240B2
:10588400086402400006093940640240086402408A
:1058940000100A3A586402400864024000160B3BA8
:1058A400706402400C64024000000C3C88640240B6
:1058B4000C64024000060D44A06402400C640240E3
:1058C40000100E45B86402400C64024000160F46F6
:1058D40006030900040012034F00730074007200F1
:1058E40061006E006E0061001803560069007200CA
:1058F4007400750061006C00200043004F004D00EF
:1059040008030100020003004300000014590008CA
:10591400090243000201008032090400000102026E
:1059240001000524001001052401000104240202E1
:105934000524060001070582030800FF090401008D
:10594400020A000000070501024000000705810269
:10595400400000001200000060590008120110010C
:1059640002000040830440570002010203010000CA
:1059740002000000D458000802000000DA580008B1
:1059840002000000EC58000802000000045900085E
:10599400C14F0008FD4C0008612D0008814D00082E
:1059A400B8350020010102000200000000000000E0
:1059B400F32D0008632E00084000400058330020F7
:1059C40098340020020000000000000003000000E2
:1059D40000000000AF2E00080000000010000000CE
:1059E40068330020000000000100000000000000F7
:1059F4005573625273740D00557362416464720D81
:105A0400000000000000000000000000314D00080C
:105A14002D4D0008A51D00084D4D0008FCFFFFFF9B
:105A240000000000794D0008BF1D000800000000C0
:105A34000000000000000000000000000000000062
:105A44000000000000000000000000000000000052
:105A54000000000000000000000000000000000042
:105A64000000000000000000000000000000000032
:105A74000000000000000000000000000000000022
:105A84000000000000000000000000004300504F30
:105A9400534958002E0000202020202020202020C0
:105AA40028282828282020202020202020202020CA
:105AB40020202020202020881010101010101010FA
:105AC400101010101010100404040404040404043E
